{
  "contractName": "PriceConsumerV3",
  "abi": [
    {
      "inputs": [],
      "stateMutability": "nonpayable",
      "type": "constructor"
    },
    {
      "inputs": [],
      "name": "priceFeed",
      "outputs": [
        {
          "internalType": "contract AggregatorV3Interface",
          "name": "",
          "type": "address"
        }
      ],
      "stateMutability": "view",
      "type": "function"
    },
    {
      "inputs": [],
      "name": "getLastestPrice",
      "outputs": [
        {
          "internalType": "int256",
          "name": "",
          "type": "int256"
        }
      ],
      "stateMutability": "view",
      "type": "function"
    },
    {
      "inputs": [],
      "name": "getDecimals",
      "outputs": [
        {
          "internalType": "uint8",
          "name": "",
          "type": "uint8"
        }
      ],
      "stateMutability": "view",
      "type": "function"
    }
  ],
  "bytecode": "0x608060405234801561001057600080fd5b5073d4a33860578de61dbabdc8bfdb98fd742fa7028e6000806101000a81548173ffffffffffffffffffffffffffffffffffffffff021916908373ffffffffffffffffffffffffffffffffffffffff16021790555061050b806100746000396000f3fe608060405234801561001057600080fd5b506004361061005e576000357c0100000000000000000000000000000000000000000000000000000000900480633ba6d51814610063578063741bef1a14610081578063f0141d841461009f575b600080fd5b61006b6100bd565b604051610078919061026c565b60405180910390f35b610089610178565b6040516100969190610306565b60405180910390f35b6100a761019c565b6040516100b4919061033d565b60405180910390f35b60008060008054906101000a900473ffffffffffffffffffffffffffffffffffffffff1673ffffffffffffffffffffffffffffffffffffffff1663feaf968c6040518163ffffffff167c010000000000000000000000000000000000000000000000000000000002815260040160a060405180830381865afa158015610147573d6000803e3d6000fd5b505050506040513d601f19601f8201168201806040525081019061016b9190610401565b5050509150508091505090565b60008054906101000a900473ffffffffffffffffffffffffffffffffffffffff1681565b60008060008054906101000a900473ffffffffffffffffffffffffffffffffffffffff1673ffffffffffffffffffffffffffffffffffffffff1663313ce5676040518163ffffffff167c0100000000000000000000000000000000000000000000000000000000028152600401602060405180830381865afa158015610226573d6000803e3d6000fd5b505050506040513d601f19601f8201168201806040525081019061024a91906104a8565b90508091505090565b6000819050919050565b61026681610253565b82525050565b6000602082019050610281600083018461025d565b92915050565b600073ffffffffffffffffffffffffffffffffffffffff82169050919050565b6000819050919050565b60006102cc6102c76102c284610287565b6102a7565b610287565b9050919050565b60006102de826102b1565b9050919050565b60006102f0826102d3565b9050919050565b610300816102e5565b82525050565b600060208201905061031b60008301846102f7565b92915050565b600060ff82169050919050565b61033781610321565b82525050565b6000602082019050610352600083018461032e565b92915050565b600080fd5b600069ffffffffffffffffffff82169050919050565b61037c8161035d565b811461038757600080fd5b50565b60008151905061039981610373565b92915050565b6103a881610253565b81146103b357600080fd5b50565b6000815190506103c58161039f565b92915050565b6000819050919050565b6103de816103cb565b81146103e957600080fd5b50565b6000815190506103fb816103d5565b92915050565b600080600080600060a0868803121561041d5761041c610358565b5b600061042b8882890161038a565b955050602061043c888289016103b6565b945050604061044d888289016103ec565b935050606061045e888289016103ec565b925050608061046f8882890161038a565b9150509295509295909350565b61048581610321565b811461049057600080fd5b50565b6000815190506104a28161047c565b92915050565b6000602082840312156104be576104bd610358565b5b60006104cc84828501610493565b9150509291505056fea26469706673582212204d24eb89daad9998c52a564eb9646d7a1a3f78bb979816c57af5c1cac8646fc564736f6c634300080e0033",
  "immutableReferences": {},
  "source": "// SPDX-License-Identifier: MIT\npragma solidity >=0.4.22 <0.9.0;\n\nimport \"@chainlink/contracts/src/v0.8/interfaces/AggregatorV3Interface.sol\";\n\ncontract PriceConsumerV3 {\n    AggregatorV3Interface public priceFeed;\n\n    constructor() {\n        priceFeed = AggregatorV3Interface(\n            0xD4a33860578De61DBAbDc8BFdb98FD742fA7028e\n        );\n    }\n\n    function getLastestPrice() public view returns (int256) {\n        (, int256 price, , , ) = priceFeed.latestRoundData();\n        return price;\n    }\n\n    function getDecimals() public view returns (uint8) {\n        uint8 decimals = priceFeed.decimals();\n        return decimals;\n    }\n}\n",
  "sourcePath": "D:\\Todo\\solidity-evm\\cryptozombies-truffle\\contracts\\PriceConsumerV3.sol",
  "compiler": {
    "name": "solc",
    "version": "0.8.14+commit.80d49f37.Emscripten.clang"
  },
  "schemaVersion": "3.4.7",
  "updatedAt": "2022-09-12T16:38:36.830Z",
  "devdoc": {
    "kind": "dev",
    "methods": {},
    "version": 1
  },
  "userdoc": {
    "kind": "user",
    "methods": {},
    "version": 1
  }
}