{
  "contractName": "ZombieAttack",
  "abi": [
    {
      "anonymous": false,
      "inputs": [
        {
          "indexed": false,
          "internalType": "uint256",
          "name": "zombieId",
          "type": "uint256"
        },
        {
          "indexed": false,
          "internalType": "string",
          "name": "name",
          "type": "string"
        },
        {
          "indexed": false,
          "internalType": "uint256",
          "name": "dna",
          "type": "uint256"
        }
      ],
      "name": "NewZombie",
      "type": "event"
    },
    {
      "anonymous": false,
      "inputs": [
        {
          "indexed": true,
          "internalType": "address",
          "name": "prviousOwner",
          "type": "address"
        },
        {
          "indexed": true,
          "internalType": "address",
          "name": "newOwner",
          "type": "address"
        }
      ],
      "name": "OwnershipTransferred",
      "type": "event"
    },
    {
      "inputs": [
        {
          "internalType": "uint256",
          "name": "_zombieId",
          "type": "uint256"
        },
        {
          "internalType": "uint256",
          "name": "_newDna",
          "type": "uint256"
        }
      ],
      "name": "changeDna",
      "outputs": [],
      "stateMutability": "nonpayable",
      "type": "function"
    },
    {
      "inputs": [
        {
          "internalType": "uint256",
          "name": "_zombieId",
          "type": "uint256"
        },
        {
          "internalType": "string",
          "name": "_newName",
          "type": "string"
        }
      ],
      "name": "changeName",
      "outputs": [],
      "stateMutability": "nonpayable",
      "type": "function"
    },
    {
      "inputs": [
        {
          "internalType": "string",
          "name": "_name",
          "type": "string"
        }
      ],
      "name": "createRandomZombie",
      "outputs": [],
      "stateMutability": "nonpayable",
      "type": "function"
    },
    {
      "inputs": [
        {
          "internalType": "uint256",
          "name": "_zombieId",
          "type": "uint256"
        },
        {
          "internalType": "uint256",
          "name": "_kittyId",
          "type": "uint256"
        }
      ],
      "name": "feedOnKitty",
      "outputs": [],
      "stateMutability": "nonpayable",
      "type": "function"
    },
    {
      "inputs": [],
      "name": "getRandomNumber",
      "outputs": [
        {
          "internalType": "bytes32",
          "name": "requestId",
          "type": "bytes32"
        }
      ],
      "stateMutability": "nonpayable",
      "type": "function"
    },
    {
      "inputs": [
        {
          "internalType": "address",
          "name": "_owner",
          "type": "address"
        }
      ],
      "name": "getZombiesByOwner",
      "outputs": [
        {
          "internalType": "uint256[]",
          "name": "",
          "type": "uint256[]"
        }
      ],
      "stateMutability": "view",
      "type": "function"
    },
    {
      "inputs": [],
      "name": "isOwner",
      "outputs": [
        {
          "internalType": "bool",
          "name": "",
          "type": "bool"
        }
      ],
      "stateMutability": "view",
      "type": "function"
    },
    {
      "inputs": [
        {
          "internalType": "uint256",
          "name": "_zombieId",
          "type": "uint256"
        }
      ],
      "name": "levelUp",
      "outputs": [],
      "stateMutability": "payable",
      "type": "function"
    },
    {
      "inputs": [],
      "name": "owner",
      "outputs": [
        {
          "internalType": "address",
          "name": "",
          "type": "address"
        }
      ],
      "stateMutability": "view",
      "type": "function"
    },
    {
      "inputs": [],
      "name": "randomResult",
      "outputs": [
        {
          "internalType": "uint256",
          "name": "",
          "type": "uint256"
        }
      ],
      "stateMutability": "view",
      "type": "function"
    },
    {
      "inputs": [
        {
          "internalType": "bytes32",
          "name": "requestId",
          "type": "bytes32"
        },
        {
          "internalType": "uint256",
          "name": "randomness",
          "type": "uint256"
        }
      ],
      "name": "rawFulfillRandomness",
      "outputs": [],
      "stateMutability": "nonpayable",
      "type": "function"
    },
    {
      "inputs": [],
      "name": "renounceOwnership",
      "outputs": [],
      "stateMutability": "nonpayable",
      "type": "function"
    },
    {
      "inputs": [
        {
          "internalType": "address",
          "name": "_address",
          "type": "address"
        }
      ],
      "name": "setKittyContractAddress",
      "outputs": [],
      "stateMutability": "nonpayable",
      "type": "function"
    },
    {
      "inputs": [
        {
          "internalType": "uint256",
          "name": "_fee",
          "type": "uint256"
        }
      ],
      "name": "setLevelUpFee",
      "outputs": [],
      "stateMutability": "nonpayable",
      "type": "function"
    },
    {
      "inputs": [
        {
          "internalType": "address",
          "name": "newOwner",
          "type": "address"
        }
      ],
      "name": "transferOwnership",
      "outputs": [],
      "stateMutability": "nonpayable",
      "type": "function"
    },
    {
      "inputs": [],
      "name": "withdraw",
      "outputs": [],
      "stateMutability": "nonpayable",
      "type": "function"
    },
    {
      "inputs": [
        {
          "internalType": "uint256",
          "name": "",
          "type": "uint256"
        }
      ],
      "name": "zombieToOwner",
      "outputs": [
        {
          "internalType": "address",
          "name": "",
          "type": "address"
        }
      ],
      "stateMutability": "view",
      "type": "function"
    },
    {
      "inputs": [
        {
          "internalType": "uint256",
          "name": "",
          "type": "uint256"
        }
      ],
      "name": "zombies",
      "outputs": [
        {
          "internalType": "string",
          "name": "name",
          "type": "string"
        },
        {
          "internalType": "uint256",
          "name": "dna",
          "type": "uint256"
        },
        {
          "internalType": "uint32",
          "name": "level",
          "type": "uint32"
        },
        {
          "internalType": "uint32",
          "name": "readyTime",
          "type": "uint32"
        },
        {
          "internalType": "uint16",
          "name": "winCount",
          "type": "uint16"
        },
        {
          "internalType": "uint16",
          "name": "lossCount",
          "type": "uint16"
        }
      ],
      "stateMutability": "view",
      "type": "function"
    },
    {
      "inputs": [
        {
          "internalType": "uint256",
          "name": "_zombieId",
          "type": "uint256"
        },
        {
          "internalType": "uint256",
          "name": "_targetId",
          "type": "uint256"
        }
      ],
      "name": "attack",
      "outputs": [],
      "stateMutability": "nonpayable",
      "type": "function"
    }
  ],
  "bytecode": "0x60c06040526010600160006101000a81548160ff021916908360ff160217905550600160009054906101000a900460ff16600a6200003e919062000396565b6002556201518060035566038d7ea4c68000600c556000600d556046600e553480156200006a57600080fd5b50732bce784e69d2ff36c71edcb9f88358db0dfb55b473326c977e6efc84e512bb9c30f76e30c160ed06fb8173ffffffffffffffffffffffffffffffffffffffff1660a08173ffffffffffffffffffffffffffffffffffffffff16815250508073ffffffffffffffffffffffffffffffffffffffff1660808173ffffffffffffffffffffffffffffffffffffffff168152505050507f0476f9a745b61ea5c0ab224d3a6e4c99f0b02fce4da01143a4f70aa80ae76e8a60010260078190555067016345785d8a000060088190555033600b60006101000a81548173ffffffffffffffffffffffffffffffffffffffff021916908373ffffffffffffffffffffffffffffffffffffffff160217905550600b60009054906101000a900473ffffffffffffffffffffffffffffffffffffffff1673ffffffffffffffffffffffffffffffffffffffff16600073ffffffffffffffffffffffffffffffffffffffff167f8be0079c531659141344cd1fd0a4f28419497f9722a3daafe3b4186f6b6457e060405160405180910390a3620003e7565b7f4e487b7100000000000000000000000000000000000000000000000000000000600052601160045260246000fd5b6000600282049050919050565b6000808291508390505b60018511156200028a57808604811115620002625762000261620001fc565b5b6001851615620002725780820291505b808102905062000282856200022b565b945062000242565b94509492505050565b600082620002a5576001905062000378565b81620002b5576000905062000378565b8160018114620002ce5760028114620002d9576200030f565b600191505062000378565b60ff841115620002ee57620002ed620001fc565b5b8360020a915084821115620003085762000307620001fc565b5b5062000378565b5060208310610133831016604e8410600b8410161715620003495782820a905083811115620003435762000342620001fc565b5b62000378565b62000358848484600162000238565b92509050818404811115620003725762000371620001fc565b5b81810290505b9392505050565b6000819050919050565b600060ff82169050919050565b6000620003a3826200037f565b9150620003b08362000389565b9250620003df7fffffffffffffffffffffffffffffffffffffffffffffffffffffffffffffffff848462000293565b905092915050565b60805160a0516128c66200041460003960008181610c7b0152611609015260006115cd01526128c66000f3fe608060405260043610610131576000357c010000000000000000000000000000000000000000000000000000000090048063715018a6116100bd578063c39cbef111610081578063c39cbef11461038a578063ccf670f8146103b3578063dbdff2c1146103dc578063e1fa763814610407578063f2fde38b1461043057610131565b8063715018a6146102cb5780637bff0a01146102e25780638da5cb5b1461030b5780638f32d59b1461033657806394985ddd1461036157610131565b806342619f661161010457806342619f66146101d45780634412e104146101ff578063528b7b8f1461023c5780635f4623f1146102795780635faf2880146102a257610131565b80630ce90ec21461013657806317a7f4cc146101525780632052465e1461017b5780633ccfd60b146101bd575b600080fd5b610150600480360381019061014b9190611ade565b610459565b005b34801561015e57600080fd5b5061017960048036038101906101749190611b0b565b6104ce565b005b34801561018757600080fd5b506101a2600480360381019061019d9190611ade565b610608565b6040516101b496959493929190611c2f565b60405180910390f35b3480156101c957600080fd5b506101d2610718565b005b3480156101e057600080fd5b506101e9610796565b6040516101f69190611c97565b60405180910390f35b34801561020b57600080fd5b5061022660048036038101906102219190611d10565b61079c565b6040516102339190611dfb565b60405180910390f35b34801561024857600080fd5b50610263600480360381019061025e9190611ade565b6108ee565b6040516102709190611e2c565b60405180910390f35b34801561028557600080fd5b506102a0600480360381019061029b9190611d10565b610921565b005b3480156102ae57600080fd5b506102c960048036038101906102c49190611b0b565b610965565b005b3480156102d757600080fd5b506102e0610abe565b005b3480156102ee57600080fd5b5061030960048036038101906103049190611f7c565b610b90565b005b34801561031757600080fd5b50610320610bf7565b60405161032d9190611e2c565b60405180910390f35b34801561034257600080fd5b5061034b610c21565b6040516103589190611fe0565b60405180910390f35b34801561036d57600080fd5b5061038860048036038101906103839190612031565b610c79565b005b34801561039657600080fd5b506103b160048036038101906103ac9190612071565b610d15565b005b3480156103bf57600080fd5b506103da60048036038101906103d59190611ade565b610e7e565b005b3480156103e857600080fd5b506103f1610e99565b6040516103fe91906120dc565b60405180910390f35b34801561041357600080fd5b5061042e60048036038101906104299190611b0b565b610eae565b005b34801561043c57600080fd5b5061045760048036038101906104529190611d10565b611148565b005b600c54341461046757600080fd5b6004818154811061047b5761047a6120f7565b5b9060005260206000209060030201600201600081819054906101000a900463ffffffff16809291906104ac90612155565b91906101000a81548163ffffffff021916908363ffffffff1602179055505050565b6000600a60009054906101000a900473ffffffffffffffffffffffffffffffffffffffff1673ffffffffffffffffffffffffffffffffffffffff1663e98b7f4d836040518263ffffffff167c01000000000000000000000000000000000000000000000000000000000281526004016105479190611c97565b61014060405180830381865afa158015610565573d6000803e3d6000fd5b505050506040513d601f19601f8201168201806040525081019061058991906121c2565b9091929394959697985090919293949596975090919293949596509091929394955090919293945090919293509091925090915090508091505061060383826040518060400160405280600581526020017f6b69747479000000000000000000000000000000000000000000000000000000815250611165565b505050565b6004818154811061061857600080fd5b906000526020600020906003020160009150905080600001805461063b906122d0565b80601f0160208091040260200160405190810160405280929190818152602001828054610667906122d0565b80156106b45780601f10610689576101008083540402835291602001916106b4565b820191906000526020600020905b81548152906001019060200180831161069757829003601f168201915b5050505050908060010154908060020160009054906101000a900463ffffffff16908060020160049054906101000a900463ffffffff16908060020160089054906101000a900461ffff169080600201600a9054906101000a900461ffff16905086565b610720610c21565b61072957600080fd5b6000610733610bf7565b90508073ffffffffffffffffffffffffffffffffffffffff166108fc3073ffffffffffffffffffffffffffffffffffffffff16319081150290604051600060405180830381858888f19350505050158015610792573d6000803e3d6000fd5b5050565b60095481565b60606000600660008473ffffffffffffffffffffffffffffffffffffffff1673ffffffffffffffffffffffffffffffffffffffff1681526020019081526020016000205467ffffffffffffffff8111156107f9576107f8611e51565b5b6040519080825280602002602001820160405280156108275781602001602082028036833780820191505090505b5090506000805b6004805490508110156108e3578473ffffffffffffffffffffffffffffffffffffffff166005600083815260200190815260200160002060009054906101000a900473ffffffffffffffffffffffffffffffffffffffff1673ffffffffffffffffffffffffffffffffffffffff16036108d057808383815181106108b5576108b46120f7565b5b60200260200101818152505081806108cc90612301565b9250505b80806108db90612301565b91505061082e565b508192505050919050565b60056020528060005260406000206000915054906101000a900473ffffffffffffffffffffffffffffffffffffffff1681565b80600a60006101000a81548173ffffffffffffffffffffffffffffffffffffffff021916908373ffffffffffffffffffffffffffffffffffffffff16021790555050565b6014828163ffffffff1660048281548110610983576109826120f7565b5b906000526020600020906003020160020160009054906101000a900463ffffffff1663ffffffff1610156109b657600080fd5b836005600082815260200190815260200160002060009054906101000a900473ffffffffffffffffffffffffffffffffffffffff1673ffffffffffffffffffffffffffffffffffffffff163373ffffffffffffffffffffffffffffffffffffffff1614610a2257600080fd5b6005600086815260200190815260200160002060009054906101000a900473ffffffffffffffffffffffffffffffffffffffff1673ffffffffffffffffffffffffffffffffffffffff163373ffffffffffffffffffffffffffffffffffffffff1614610a8d57600080fd5b8360048681548110610aa257610aa16120f7565b5b9060005260206000209060030201600101819055505050505050565b610ac6610c21565b610acf57600080fd5b600073ffffffffffffffffffffffffffffffffffffffff16600b60009054906101000a900473ffffffffffffffffffffffffffffffffffffffff1673ffffffffffffffffffffffffffffffffffffffff167f8be0079c531659141344cd1fd0a4f28419497f9722a3daafe3b4186f6b6457e060405160405180910390a36000600b60006101000a81548173ffffffffffffffffffffffffffffffffffffffff021916908373ffffffffffffffffffffffffffffffffffffffff160217905550565b6000600660003373ffffffffffffffffffffffffffffffffffffffff1673ffffffffffffffffffffffffffffffffffffffff1681526020019081526020016000205414610bdc57600080fd5b6000610be782611301565b9050610bf38282611347565b5050565b6000600b60009054906101000a900473ffffffffffffffffffffffffffffffffffffffff16905090565b6000600b60009054906101000a900473ffffffffffffffffffffffffffffffffffffffff1673ffffffffffffffffffffffffffffffffffffffff163373ffffffffffffffffffffffffffffffffffffffff1614905090565b7f000000000000000000000000000000000000000000000000000000000000000073ffffffffffffffffffffffffffffffffffffffff163373ffffffffffffffffffffffffffffffffffffffff1614610d07576040517f08c379a0000000000000000000000000000000000000000000000000000000008152600401610cfe90612395565b60405180910390fd5b610d1182826115be565b5050565b6002828163ffffffff1660048281548110610d3357610d326120f7565b5b906000526020600020906003020160020160009054906101000a900463ffffffff1663ffffffff161015610d6657600080fd5b836005600082815260200190815260200160002060009054906101000a900473ffffffffffffffffffffffffffffffffffffffff1673ffffffffffffffffffffffffffffffffffffffff163373ffffffffffffffffffffffffffffffffffffffff1614610dd257600080fd5b6005600086815260200190815260200160002060009054906101000a900473ffffffffffffffffffffffffffffffffffffffff1673ffffffffffffffffffffffffffffffffffffffff163373ffffffffffffffffffffffffffffffffffffffff1614610e3d57600080fd5b8360048681548110610e5257610e516120f7565b5b90600052602060002090600302016000019080519060200190610e769291906119f1565b505050505050565b610e86610c21565b610e8f57600080fd5b80600c8190555050565b6000610ea96007546008546115c9565b905090565b816005600082815260200190815260200160002060009054906101000a900473ffffffffffffffffffffffffffffffffffffffff1673ffffffffffffffffffffffffffffffffffffffff163373ffffffffffffffffffffffffffffffffffffffff1614610f1a57600080fd5b600060048481548110610f3057610f2f6120f7565b5b90600052602060002090600302019050600060048481548110610f5657610f556120f7565b5b906000526020600020906003020190506000610f726064611735565b9050600e5481116110a657610fa760018460020160089054906101000a900461ffff1661ffff1661179690919063ffffffff16565b8360020160086101000a81548161ffff021916908361ffff160217905550610ff360018460020160009054906101000a900463ffffffff1663ffffffff166117ca90919063ffffffff16565b8360020160006101000a81548163ffffffff021916908363ffffffff16021790555061103f600183600201600a9054906101000a900461ffff1661ffff1661179690919063ffffffff16565b82600201600a6101000a81548161ffff021916908361ffff1602179055506110a18683600101546040518060400160405280600681526020017f7a6f6d6269650000000000000000000000000000000000000000000000000000815250611165565b611140565b6110d0600184600201600a9054906101000a900461ffff1661ffff1661179690919063ffffffff16565b83600201600a6101000a81548161ffff021916908361ffff16021790555061111860018360020160089054906101000a900461ffff1661ffff1661179690919063ffffffff16565b8260020160086101000a81548161ffff021916908361ffff16021790555061113f83611802565b5b505050505050565b611150610c21565b61115957600080fd5b61116281611835565b50565b826005600082815260200190815260200160002060009054906101000a900473ffffffffffffffffffffffffffffffffffffffff1673ffffffffffffffffffffffffffffffffffffffff163373ffffffffffffffffffffffffffffffffffffffff16146111d157600080fd5b6000600485815481106111e7576111e66120f7565b5b906000526020600020906003020190506112008161192e565b61120957600080fd5b6002548461121791906123e4565b93506000600285836001015461122d9190612415565b611237919061246b565b9050604051602001611248906124f3565b604051602081830303815290604052805190602001208460405160200161126f9190612539565b60405160208183030381529060405280519060200120036112b157606360648261129991906123e4565b826112a49190612550565b6112ae9190612415565b90505b6112f06040518060400160405280600681526020017f4e6f4e616d65000000000000000000000000000000000000000000000000000081525082611347565b6112f982611802565b505050505050565b600080826040516020016113159190612539565b604051602081830303815290604052805190602001206001900490506002548161133f91906123e4565b915050919050565b60046040518060c00160405280848152602001838152602001600163ffffffff1681526020016003544261137b9190612415565b63ffffffff168152602001600061ffff168152602001600061ffff16815250908060018154018082558091505060019003906000526020600020906003020160009091909190915060008201518160000190805190602001906113df9291906119f1565b506020820151816001015560408201518160020160006101000a81548163ffffffff021916908363ffffffff16021790555060608201518160020160046101000a81548163ffffffff021916908363ffffffff16021790555060808201518160020160086101000a81548161ffff021916908361ffff16021790555060a082015181600201600a6101000a81548161ffff021916908361ffff1602179055505050600060016004805490506114949190612550565b9050336005600083815260200190815260200160002060006101000a81548173ffffffffffffffffffffffffffffffffffffffff021916908373ffffffffffffffffffffffffffffffffffffffff16021790555061153b6001600660003373ffffffffffffffffffffffffffffffffffffffff1673ffffffffffffffffffffffffffffffffffffffff1681526020019081526020016000205461195590919063ffffffff16565b600660003373ffffffffffffffffffffffffffffffffffffffff1673ffffffffffffffffffffffffffffffffffffffff168152602001908152602001600020819055507f88f026aacbbecc90c18411df4b1185fd8d9be2470f1962f192bf84a27d0704b78184846040516115b193929190612584565b60405180910390a1505050565b806009819055505050565b60007f000000000000000000000000000000000000000000000000000000000000000073ffffffffffffffffffffffffffffffffffffffff16634000aea07f00000000000000000000000000000000000000000000000000000000000000008486600060405160200161163d9291906125c2565b6040516020818303038152906040526040518463ffffffff167c010000000000000000000000000000000000000000000000000000000002815260040161168693929190612640565b6020604051808303816000875af11580156116a5573d6000803e3d6000fd5b505050506040513d601f19601f820116820180604052508101906116c9919061267e565b5060006116eb8460003060008089815260200190815260200160002054611981565b905060016000808681526020019081526020016000205461170c9190612415565b6000808681526020019081526020016000208190555061172c84826119be565b91505092915050565b600061174d6001600d5461195590919063ffffffff16565b600d81905550814233600d5460405160200161176b93929190612720565b604051602081830303815290604052805190602001206001900461178f91906123e4565b9050919050565b60008082846117a5919061275d565b90508361ffff168161ffff1610156117c0576117bf612795565b5b8091505092915050565b60008082846117d991906127c4565b90508363ffffffff168163ffffffff1610156117f8576117f7612795565b5b8091505092915050565b600354426118109190612415565b8160020160046101000a81548163ffffffff021916908363ffffffff16021790555050565b600073ffffffffffffffffffffffffffffffffffffffff168173ffffffffffffffffffffffffffffffffffffffff160361186e57600080fd5b8073ffffffffffffffffffffffffffffffffffffffff16600b60009054906101000a900473ffffffffffffffffffffffffffffffffffffffff1673ffffffffffffffffffffffffffffffffffffffff167f8be0079c531659141344cd1fd0a4f28419497f9722a3daafe3b4186f6b6457e060405160405180910390a380600b60006101000a81548173ffffffffffffffffffffffffffffffffffffffff021916908373ffffffffffffffffffffffffffffffffffffffff16021790555050565b6000428260020160049054906101000a900463ffffffff1663ffffffff1611159050919050565b60008082846119649190612415565b90508381101561197757611976612795565b5b8091505092915050565b60008484848460405160200161199a94939291906127fe565b60405160208183030381529060405280519060200120600190049050949350505050565b600082826040516020016119d3929190612864565b60405160208183030381529060405280519060200120905092915050565b8280546119fd906122d0565b90600052602060002090601f016020900481019282611a1f5760008555611a66565b82601f10611a3857805160ff1916838001178555611a66565b82800160010185558215611a66579182015b82811115611a65578251825591602001919060010190611a4a565b5b509050611a739190611a77565b5090565b5b80821115611a90576000816000905550600101611a78565b5090565b6000604051905090565b600080fd5b600080fd5b6000819050919050565b611abb81611aa8565b8114611ac657600080fd5b50565b600081359050611ad881611ab2565b92915050565b600060208284031215611af457611af3611a9e565b5b6000611b0284828501611ac9565b91505092915050565b60008060408385031215611b2257611b21611a9e565b5b6000611b3085828601611ac9565b9250506020611b4185828601611ac9565b9150509250929050565b600081519050919050565b600082825260208201905092915050565b60005b83811015611b85578082015181840152602081019050611b6a565b83811115611b94576000848401525b50505050565b6000601f19601f8301169050919050565b6000611bb682611b4b565b611bc08185611b56565b9350611bd0818560208601611b67565b611bd981611b9a565b840191505092915050565b611bed81611aa8565b82525050565b600063ffffffff82169050919050565b611c0c81611bf3565b82525050565b600061ffff82169050919050565b611c2981611c12565b82525050565b600060c0820190508181036000830152611c498189611bab565b9050611c586020830188611be4565b611c656040830187611c03565b611c726060830186611c03565b611c7f6080830185611c20565b611c8c60a0830184611c20565b979650505050505050565b6000602082019050611cac6000830184611be4565b92915050565b600073ffffffffffffffffffffffffffffffffffffffff82169050919050565b6000611cdd82611cb2565b9050919050565b611ced81611cd2565b8114611cf857600080fd5b50565b600081359050611d0a81611ce4565b92915050565b600060208284031215611d2657611d25611a9e565b5b6000611d3484828501611cfb565b91505092915050565b600081519050919050565b600082825260208201905092915050565b6000819050602082019050919050565b611d7281611aa8565b82525050565b6000611d848383611d69565b60208301905092915050565b6000602082019050919050565b6000611da882611d3d565b611db28185611d48565b9350611dbd83611d59565b8060005b83811015611dee578151611dd58882611d78565b9750611de083611d90565b925050600181019050611dc1565b5085935050505092915050565b60006020820190508181036000830152611e158184611d9d565b905092915050565b611e2681611cd2565b82525050565b6000602082019050611e416000830184611e1d565b92915050565b600080fd5b600080fd5b7f4e487b7100000000000000000000000000000000000000000000000000000000600052604160045260246000fd5b611e8982611b9a565b810181811067ffffffffffffffff82111715611ea857611ea7611e51565b5b80604052505050565b6000611ebb611a94565b9050611ec78282611e80565b919050565b600067ffffffffffffffff821115611ee757611ee6611e51565b5b611ef082611b9a565b9050602081019050919050565b82818337600083830152505050565b6000611f1f611f1a84611ecc565b611eb1565b905082815260208101848484011115611f3b57611f3a611e4c565b5b611f46848285611efd565b509392505050565b600082601f830112611f6357611f62611e47565b5b8135611f73848260208601611f0c565b91505092915050565b600060208284031215611f9257611f91611a9e565b5b600082013567ffffffffffffffff811115611fb057611faf611aa3565b5b611fbc84828501611f4e565b91505092915050565b60008115159050919050565b611fda81611fc5565b82525050565b6000602082019050611ff56000830184611fd1565b92915050565b6000819050919050565b61200e81611ffb565b811461201957600080fd5b50565b60008135905061202b81612005565b92915050565b6000806040838503121561204857612047611a9e565b5b60006120568582860161201c565b925050602061206785828601611ac9565b9150509250929050565b6000806040838503121561208857612087611a9e565b5b600061209685828601611ac9565b925050602083013567ffffffffffffffff8111156120b7576120b6611aa3565b5b6120c385828601611f4e565b9150509250929050565b6120d681611ffb565b82525050565b60006020820190506120f160008301846120cd565b92915050565b7f4e487b7100000000000000000000000000000000000000000000000000000000600052603260045260246000fd5b7f4e487b7100000000000000000000000000000000000000000000000000000000600052601160045260246000fd5b600061216082611bf3565b915063ffffffff820361217657612175612126565b5b600182019050919050565b61218a81611fc5565b811461219557600080fd5b50565b6000815190506121a781612181565b92915050565b6000815190506121bc81611ab2565b92915050565b6000806000806000806000806000806101408b8d0312156121e6576121e5611a9e565b5b60006121f48d828e01612198565b9a505060206122058d828e01612198565b99505060406122168d828e016121ad565b98505060606122278d828e016121ad565b97505060806122388d828e016121ad565b96505060a06122498d828e016121ad565b95505060c061225a8d828e016121ad565b94505060e061226b8d828e016121ad565b93505061010061227d8d828e016121ad565b92505061012061228f8d828e016121ad565b9150509295989b9194979a5092959850565b7f4e487b7100000000000000000000000000000000000000000000000000000000600052602260045260246000fd5b600060028204905060018216806122e857607f821691505b6020821081036122fb576122fa6122a1565b5b50919050565b600061230c82611aa8565b91507fffffffffffffffffffffffffffffffffffffffffffffffffffffffffffffffff820361233e5761233d612126565b5b600182019050919050565b7f4f6e6c7920565246436f6f7264696e61746f722063616e2066756c66696c6c00600082015250565b600061237f601f83611b56565b915061238a82612349565b602082019050919050565b600060208201905081810360008301526123ae81612372565b9050919050565b7f4e487b7100000000000000000000000000000000000000000000000000000000600052601260045260246000fd5b60006123ef82611aa8565b91506123fa83611aa8565b92508261240a576124096123b5565b5b828206905092915050565b600061242082611aa8565b915061242b83611aa8565b9250827fffffffffffffffffffffffffffffffffffffffffffffffffffffffffffffffff038211156124605761245f612126565b5b828201905092915050565b600061247682611aa8565b915061248183611aa8565b925082612491576124906123b5565b5b828204905092915050565b600081905092915050565b7f6b69747479000000000000000000000000000000000000000000000000000000600082015250565b60006124dd60058361249c565b91506124e8826124a7565b600582019050919050565b60006124fe826124d0565b9150819050919050565b600061251382611b4b565b61251d818561249c565b935061252d818560208601611b67565b80840191505092915050565b60006125458284612508565b915081905092915050565b600061255b82611aa8565b915061256683611aa8565b92508282101561257957612578612126565b5b828203905092915050565b60006060820190506125996000830186611be4565b81810360208301526125ab8185611bab565b90506125ba6040830184611be4565b949350505050565b60006040820190506125d760008301856120cd565b6125e46020830184611be4565b9392505050565b600081519050919050565b600082825260208201905092915050565b6000612612826125eb565b61261c81856125f6565b935061262c818560208601611b67565b61263581611b9a565b840191505092915050565b60006060820190506126556000830186611e1d565b6126626020830185611be4565b81810360408301526126748184612607565b9050949350505050565b60006020828403121561269457612693611a9e565b5b60006126a284828501612198565b91505092915050565b6000819050919050565b6126c66126c182611aa8565b6126ab565b82525050565b60006c0100000000000000000000000082029050919050565b60006126f0826126cc565b9050919050565b6000612702826126e5565b9050919050565b61271a61271582611cd2565b6126f7565b82525050565b600061272c82866126b5565b60208201915061273c8285612709565b60148201915061274c82846126b5565b602082019150819050949350505050565b600061276882611c12565b915061277383611c12565b92508261ffff0382111561278a57612789612126565b5b828201905092915050565b7f4e487b7100000000000000000000000000000000000000000000000000000000600052600160045260246000fd5b60006127cf82611bf3565b91506127da83611bf3565b92508263ffffffff038211156127f3576127f2612126565b5b828201905092915050565b600060808201905061281360008301876120cd565b6128206020830186611be4565b61282d6040830185611e1d565b61283a6060830184611be4565b95945050505050565b6000819050919050565b61285e61285982611ffb565b612843565b82525050565b6000612870828561284d565b60208201915061288082846126b5565b602082019150819050939250505056fea2646970667358221220547ddfcf9fd44e9ad4dcfe1e413a4bacdde53464248b7affd25dcc92bec2a5d664736f6c634300080e0033",
  "immutableReferences": {
    "73": [
      {
        "length": 32,
        "start": 5581
      }
    ],
    "75": [
      {
        "length": 32,
        "start": 3195
      },
      {
        "length": 32,
        "start": 5641
      }
    ]
  },
  "source": "// SPDX-License-Identifier: MIT\npragma solidity >=0.4.22 <0.9.0;\n\nimport \"./ZombieHelper.sol\";\nimport \"./lib/SafeMath.sol\";\n\ncontract ZombieAttack is ZombieHelper {\n    using SafeMath for uint256;\n    using SafeMath32 for uint32;\n    using SafeMath16 for uint16;\n\n    uint256 randNonce = 0;\n    uint256 attackVictoryProbability = 70;\n\n    function randMod(uint256 _modulus) internal returns (uint256) {\n        randNonce = randNonce.add(1);\n\n        return\n            uint256(\n                keccak256(\n                    abi.encodePacked(block.timestamp, msg.sender, randNonce)\n                )\n            ) % _modulus;\n    }\n\n    function attack(uint256 _zombieId, uint256 _targetId)\n        external\n        onlyOwnerOf(_zombieId)\n    {\n        Zombie storage myZombie = zombies[_zombieId];\n        Zombie storage enemyZombie = zombies[_targetId];\n        uint256 rand = randMod(100);\n\n        if (rand <= attackVictoryProbability) {\n            myZombie.winCount = myZombie.winCount.add(1);\n            myZombie.level = myZombie.level.add(1);\n            enemyZombie.lossCount = enemyZombie.lossCount.add(1);\n            feedAndMultiply(_zombieId, enemyZombie.dna, \"zombie\");\n        } else {\n            myZombie.lossCount = myZombie.lossCount.add(1);\n            enemyZombie.winCount = enemyZombie.winCount.add(1);\n            _triggerCooldown(myZombie);\n        }\n    }\n}\n",
  "sourcePath": "D:\\Todo\\solidity-evm\\cryptozombies-truffle\\contracts\\ZombieAttack.sol",
  "compiler": {
    "name": "solc",
    "version": "0.8.14+commit.80d49f37.Emscripten.clang"
  },
  "schemaVersion": "3.4.7",
  "updatedAt": "2022-09-12T16:38:36.832Z",
  "devdoc": {
    "kind": "dev",
    "methods": {},
    "version": 1
  },
  "userdoc": {
    "kind": "user",
    "methods": {},
    "version": 1
  }
}