{
  "contractName": "ZombieOwnership",
  "abi": [
    {
      "anonymous": false,
      "inputs": [
        {
          "indexed": true,
          "internalType": "address",
          "name": "_owner",
          "type": "address"
        },
        {
          "indexed": true,
          "internalType": "address",
          "name": "_approved",
          "type": "address"
        },
        {
          "indexed": true,
          "internalType": "uint256",
          "name": "_tokenId",
          "type": "uint256"
        }
      ],
      "name": "Approval",
      "type": "event"
    },
    {
      "anonymous": false,
      "inputs": [
        {
          "indexed": false,
          "internalType": "uint256",
          "name": "zombieId",
          "type": "uint256"
        },
        {
          "indexed": false,
          "internalType": "string",
          "name": "name",
          "type": "string"
        },
        {
          "indexed": false,
          "internalType": "uint256",
          "name": "dna",
          "type": "uint256"
        }
      ],
      "name": "NewZombie",
      "type": "event"
    },
    {
      "anonymous": false,
      "inputs": [
        {
          "indexed": true,
          "internalType": "address",
          "name": "prviousOwner",
          "type": "address"
        },
        {
          "indexed": true,
          "internalType": "address",
          "name": "newOwner",
          "type": "address"
        }
      ],
      "name": "OwnershipTransferred",
      "type": "event"
    },
    {
      "anonymous": false,
      "inputs": [
        {
          "indexed": true,
          "internalType": "address",
          "name": "_from",
          "type": "address"
        },
        {
          "indexed": true,
          "internalType": "address",
          "name": "_to",
          "type": "address"
        },
        {
          "indexed": true,
          "internalType": "uint256",
          "name": "_tokenId",
          "type": "uint256"
        }
      ],
      "name": "Transfer",
      "type": "event"
    },
    {
      "inputs": [
        {
          "internalType": "uint256",
          "name": "_zombieId",
          "type": "uint256"
        },
        {
          "internalType": "uint256",
          "name": "_targetId",
          "type": "uint256"
        }
      ],
      "name": "attack",
      "outputs": [],
      "stateMutability": "nonpayable",
      "type": "function"
    },
    {
      "inputs": [
        {
          "internalType": "uint256",
          "name": "_zombieId",
          "type": "uint256"
        },
        {
          "internalType": "uint256",
          "name": "_newDna",
          "type": "uint256"
        }
      ],
      "name": "changeDna",
      "outputs": [],
      "stateMutability": "nonpayable",
      "type": "function"
    },
    {
      "inputs": [
        {
          "internalType": "uint256",
          "name": "_zombieId",
          "type": "uint256"
        },
        {
          "internalType": "string",
          "name": "_newName",
          "type": "string"
        }
      ],
      "name": "changeName",
      "outputs": [],
      "stateMutability": "nonpayable",
      "type": "function"
    },
    {
      "inputs": [
        {
          "internalType": "string",
          "name": "_name",
          "type": "string"
        }
      ],
      "name": "createRandomZombie",
      "outputs": [],
      "stateMutability": "nonpayable",
      "type": "function"
    },
    {
      "inputs": [
        {
          "internalType": "uint256",
          "name": "_zombieId",
          "type": "uint256"
        },
        {
          "internalType": "uint256",
          "name": "_kittyId",
          "type": "uint256"
        }
      ],
      "name": "feedOnKitty",
      "outputs": [],
      "stateMutability": "nonpayable",
      "type": "function"
    },
    {
      "inputs": [],
      "name": "getRandomNumber",
      "outputs": [
        {
          "internalType": "bytes32",
          "name": "requestId",
          "type": "bytes32"
        }
      ],
      "stateMutability": "nonpayable",
      "type": "function"
    },
    {
      "inputs": [
        {
          "internalType": "address",
          "name": "_owner",
          "type": "address"
        }
      ],
      "name": "getZombiesByOwner",
      "outputs": [
        {
          "internalType": "uint256[]",
          "name": "",
          "type": "uint256[]"
        }
      ],
      "stateMutability": "view",
      "type": "function"
    },
    {
      "inputs": [],
      "name": "isOwner",
      "outputs": [
        {
          "internalType": "bool",
          "name": "",
          "type": "bool"
        }
      ],
      "stateMutability": "view",
      "type": "function"
    },
    {
      "inputs": [
        {
          "internalType": "uint256",
          "name": "_zombieId",
          "type": "uint256"
        }
      ],
      "name": "levelUp",
      "outputs": [],
      "stateMutability": "payable",
      "type": "function"
    },
    {
      "inputs": [],
      "name": "owner",
      "outputs": [
        {
          "internalType": "address",
          "name": "",
          "type": "address"
        }
      ],
      "stateMutability": "view",
      "type": "function"
    },
    {
      "inputs": [],
      "name": "randomResult",
      "outputs": [
        {
          "internalType": "uint256",
          "name": "",
          "type": "uint256"
        }
      ],
      "stateMutability": "view",
      "type": "function"
    },
    {
      "inputs": [
        {
          "internalType": "bytes32",
          "name": "requestId",
          "type": "bytes32"
        },
        {
          "internalType": "uint256",
          "name": "randomness",
          "type": "uint256"
        }
      ],
      "name": "rawFulfillRandomness",
      "outputs": [],
      "stateMutability": "nonpayable",
      "type": "function"
    },
    {
      "inputs": [],
      "name": "renounceOwnership",
      "outputs": [],
      "stateMutability": "nonpayable",
      "type": "function"
    },
    {
      "inputs": [
        {
          "internalType": "address",
          "name": "_address",
          "type": "address"
        }
      ],
      "name": "setKittyContractAddress",
      "outputs": [],
      "stateMutability": "nonpayable",
      "type": "function"
    },
    {
      "inputs": [
        {
          "internalType": "uint256",
          "name": "_fee",
          "type": "uint256"
        }
      ],
      "name": "setLevelUpFee",
      "outputs": [],
      "stateMutability": "nonpayable",
      "type": "function"
    },
    {
      "inputs": [
        {
          "internalType": "address",
          "name": "newOwner",
          "type": "address"
        }
      ],
      "name": "transferOwnership",
      "outputs": [],
      "stateMutability": "nonpayable",
      "type": "function"
    },
    {
      "inputs": [],
      "name": "withdraw",
      "outputs": [],
      "stateMutability": "nonpayable",
      "type": "function"
    },
    {
      "inputs": [
        {
          "internalType": "uint256",
          "name": "",
          "type": "uint256"
        }
      ],
      "name": "zombieToOwner",
      "outputs": [
        {
          "internalType": "address",
          "name": "",
          "type": "address"
        }
      ],
      "stateMutability": "view",
      "type": "function"
    },
    {
      "inputs": [
        {
          "internalType": "uint256",
          "name": "",
          "type": "uint256"
        }
      ],
      "name": "zombies",
      "outputs": [
        {
          "internalType": "string",
          "name": "name",
          "type": "string"
        },
        {
          "internalType": "uint256",
          "name": "dna",
          "type": "uint256"
        },
        {
          "internalType": "uint32",
          "name": "level",
          "type": "uint32"
        },
        {
          "internalType": "uint32",
          "name": "readyTime",
          "type": "uint32"
        },
        {
          "internalType": "uint16",
          "name": "winCount",
          "type": "uint16"
        },
        {
          "internalType": "uint16",
          "name": "lossCount",
          "type": "uint16"
        }
      ],
      "stateMutability": "view",
      "type": "function"
    },
    {
      "inputs": [
        {
          "internalType": "address",
          "name": "_owner",
          "type": "address"
        }
      ],
      "name": "balanceOf",
      "outputs": [
        {
          "internalType": "uint256",
          "name": "",
          "type": "uint256"
        }
      ],
      "stateMutability": "view",
      "type": "function"
    },
    {
      "inputs": [
        {
          "internalType": "uint256",
          "name": "_tokenId",
          "type": "uint256"
        }
      ],
      "name": "ownerOf",
      "outputs": [
        {
          "internalType": "address",
          "name": "",
          "type": "address"
        }
      ],
      "stateMutability": "view",
      "type": "function"
    },
    {
      "inputs": [
        {
          "internalType": "address",
          "name": "_from",
          "type": "address"
        },
        {
          "internalType": "address",
          "name": "_to",
          "type": "address"
        },
        {
          "internalType": "uint256",
          "name": "_tokenId",
          "type": "uint256"
        }
      ],
      "name": "transferFrom",
      "outputs": [],
      "stateMutability": "payable",
      "type": "function"
    },
    {
      "inputs": [
        {
          "internalType": "address",
          "name": "_approved",
          "type": "address"
        },
        {
          "internalType": "uint256",
          "name": "_tokenId",
          "type": "uint256"
        }
      ],
      "name": "approve",
      "outputs": [],
      "stateMutability": "payable",
      "type": "function"
    }
  ],
  "bytecode": "0x60c06040526010600160006101000a81548160ff021916908360ff160217905550600160009054906101000a900460ff16600a6200003e919062000396565b6002556201518060035566038d7ea4c68000600c556000600d556046600e553480156200006a57600080fd5b50732bce784e69d2ff36c71edcb9f88358db0dfb55b473326c977e6efc84e512bb9c30f76e30c160ed06fb8173ffffffffffffffffffffffffffffffffffffffff1660a08173ffffffffffffffffffffffffffffffffffffffff16815250508073ffffffffffffffffffffffffffffffffffffffff1660808173ffffffffffffffffffffffffffffffffffffffff168152505050507f0476f9a745b61ea5c0ab224d3a6e4c99f0b02fce4da01143a4f70aa80ae76e8a60010260078190555067016345785d8a000060088190555033600b60006101000a81548173ffffffffffffffffffffffffffffffffffffffff021916908373ffffffffffffffffffffffffffffffffffffffff160217905550600b60009054906101000a900473ffffffffffffffffffffffffffffffffffffffff1673ffffffffffffffffffffffffffffffffffffffff16600073ffffffffffffffffffffffffffffffffffffffff167f8be0079c531659141344cd1fd0a4f28419497f9722a3daafe3b4186f6b6457e060405160405180910390a3620003e7565b7f4e487b7100000000000000000000000000000000000000000000000000000000600052601160045260246000fd5b6000600282049050919050565b6000808291508390505b60018511156200028a57808604811115620002625762000261620001fc565b5b6001851615620002725780820291505b808102905062000282856200022b565b945062000242565b94509492505050565b600082620002a5576001905062000378565b81620002b5576000905062000378565b8160018114620002ce5760028114620002d9576200030f565b600191505062000378565b60ff841115620002ee57620002ed620001fc565b5b8360020a915084821115620003085762000307620001fc565b5b5062000378565b5060208310610133831016604e8410600b8410161715620003495782820a905083811115620003435762000342620001fc565b5b62000378565b62000358848484600162000238565b92509050818404811115620003725762000371620001fc565b5b81810290505b9392505050565b6000819050919050565b600060ff82169050919050565b6000620003a3826200037f565b9150620003b08362000389565b9250620003df7fffffffffffffffffffffffffffffffffffffffffffffffffffffffffffffffff848462000293565b905092915050565b60805160a051612ec46200041460003960008181610fe10152611b4d01526000611b110152612ec46000f3fe60806040526004361061015d576000357c0100000000000000000000000000000000000000000000000000000000900480636352211e116100d357806394985ddd1161008c57806394985ddd1461043f578063c39cbef114610468578063ccf670f814610491578063dbdff2c1146104ba578063e1fa7638146104e5578063f2fde38b1461050e5761015d565b80636352211e1461032f57806370a082311461036c578063715018a6146103a95780637bff0a01146103c05780638da5cb5b146103e95780638f32d59b146104145761015d565b80633ccfd60b116101255780633ccfd60b1461022157806342619f66146102385780634412e10414610263578063528b7b8f146102a05780635f4623f1146102dd5780635faf2880146103065761015d565b8063095ea7b3146101625780630ce90ec21461017e57806317a7f4cc1461019a5780632052465e146101c357806323b872dd14610205575b600080fd5b61017c600480360381019061017791906120a7565b610537565b005b610198600480360381019061019391906120e7565b610655565b005b3480156101a657600080fd5b506101c160048036038101906101bc9190612114565b6106ca565b005b3480156101cf57600080fd5b506101ea60048036038101906101e591906120e7565b610804565b6040516101fc96959493929190612238565b60405180910390f35b61021f600480360381019061021a91906122a0565b610914565b005b34801561022d57600080fd5b506102366109f8565b005b34801561024457600080fd5b5061024d610a76565b60405161025a91906122f3565b60405180910390f35b34801561026f57600080fd5b5061028a6004803603810190610285919061230e565b610a7c565b60405161029791906123f9565b60405180910390f35b3480156102ac57600080fd5b506102c760048036038101906102c291906120e7565b610bce565b6040516102d4919061242a565b60405180910390f35b3480156102e957600080fd5b5061030460048036038101906102ff919061230e565b610c01565b005b34801561031257600080fd5b5061032d60048036038101906103289190612114565b610c45565b005b34801561033b57600080fd5b50610356600480360381019061035191906120e7565b610d9e565b604051610363919061242a565b60405180910390f35b34801561037857600080fd5b50610393600480360381019061038e919061230e565b610ddb565b6040516103a091906122f3565b60405180910390f35b3480156103b557600080fd5b506103be610e24565b005b3480156103cc57600080fd5b506103e760048036038101906103e2919061257a565b610ef6565b005b3480156103f557600080fd5b506103fe610f5d565b60405161040b919061242a565b60405180910390f35b34801561042057600080fd5b50610429610f87565b60405161043691906125de565b60405180910390f35b34801561044b57600080fd5b506104666004803603810190610461919061262f565b610fdf565b005b34801561047457600080fd5b5061048f600480360381019061048a919061266f565b61107b565b005b34801561049d57600080fd5b506104b860048036038101906104b391906120e7565b6111e4565b005b3480156104c657600080fd5b506104cf6111ff565b6040516104dc91906126da565b60405180910390f35b3480156104f157600080fd5b5061050c60048036038101906105079190612114565b611214565b005b34801561051a57600080fd5b506105356004803603810190610530919061230e565b6114ae565b005b806005600082815260200190815260200160002060009054906101000a900473ffffffffffffffffffffffffffffffffffffffff1673ffffffffffffffffffffffffffffffffffffffff163373ffffffffffffffffffffffffffffffffffffffff16146105a357600080fd5b82600f600084815260200190815260200160002060006101000a81548173ffffffffffffffffffffffffffffffffffffffff021916908373ffffffffffffffffffffffffffffffffffffffff160217905550818373ffffffffffffffffffffffffffffffffffffffff163373ffffffffffffffffffffffffffffffffffffffff167f8c5be1e5ebec7d5bd14f71427d1e84f3dd0314c0f7b2291e5b200ac8c7c3b92560405160405180910390a4505050565b600c54341461066357600080fd5b60048181548110610677576106766126f5565b5b9060005260206000209060030201600201600081819054906101000a900463ffffffff16809291906106a890612753565b91906101000a81548163ffffffff021916908363ffffffff1602179055505050565b6000600a60009054906101000a900473ffffffffffffffffffffffffffffffffffffffff1673ffffffffffffffffffffffffffffffffffffffff1663e98b7f4d836040518263ffffffff167c010000000000000000000000000000000000000000000000000000000002815260040161074391906122f3565b61014060405180830381865afa158015610761573d6000803e3d6000fd5b505050506040513d601f19601f8201168201806040525081019061078591906127c0565b909192939495969798509091929394959697509091929394959650909192939495509091929394509091929350909192509091509050809150506107ff83826040518060400160405280600581526020017f6b697474790000000000000000000000000000000000000000000000000000008152506114cb565b505050565b6004818154811061081457600080fd5b9060005260206000209060030201600091509050806000018054610837906128ce565b80601f0160208091040260200160405190810160405280929190818152602001828054610863906128ce565b80156108b05780601f10610885576101008083540402835291602001916108b0565b820191906000526020600020905b81548152906001019060200180831161089357829003601f168201915b5050505050908060010154908060020160009054906101000a900463ffffffff16908060020160049054906101000a900463ffffffff16908060020160089054906101000a900461ffff169080600201600a9054906101000a900461ffff16905086565b3373ffffffffffffffffffffffffffffffffffffffff166005600083815260200190815260200160002060009054906101000a900473ffffffffffffffffffffffffffffffffffffffff1673ffffffffffffffffffffffffffffffffffffffff1614806109df57503373ffffffffffffffffffffffffffffffffffffffff16600f600083815260200190815260200160002060009054906101000a900473ffffffffffffffffffffffffffffffffffffffff1673ffffffffffffffffffffffffffffffffffffffff16145b6109e857600080fd5b6109f3838383611667565b505050565b610a00610f87565b610a0957600080fd5b6000610a13610f5d565b90508073ffffffffffffffffffffffffffffffffffffffff166108fc3073ffffffffffffffffffffffffffffffffffffffff16319081150290604051600060405180830381858888f19350505050158015610a72573d6000803e3d6000fd5b5050565b60095481565b60606000600660008473ffffffffffffffffffffffffffffffffffffffff1673ffffffffffffffffffffffffffffffffffffffff1681526020019081526020016000205467ffffffffffffffff811115610ad957610ad861244f565b5b604051908082528060200260200182016040528015610b075781602001602082028036833780820191505090505b5090506000805b600480549050811015610bc3578473ffffffffffffffffffffffffffffffffffffffff166005600083815260200190815260200160002060009054906101000a900473ffffffffffffffffffffffffffffffffffffffff1673ffffffffffffffffffffffffffffffffffffffff1603610bb05780838381518110610b9557610b946126f5565b5b6020026020010181815250508180610bac906128ff565b9250505b8080610bbb906128ff565b915050610b0e565b508192505050919050565b60056020528060005260406000206000915054906101000a900473ffffffffffffffffffffffffffffffffffffffff1681565b80600a60006101000a81548173ffffffffffffffffffffffffffffffffffffffff021916908373ffffffffffffffffffffffffffffffffffffffff16021790555050565b6014828163ffffffff1660048281548110610c6357610c626126f5565b5b906000526020600020906003020160020160009054906101000a900463ffffffff1663ffffffff161015610c9657600080fd5b836005600082815260200190815260200160002060009054906101000a900473ffffffffffffffffffffffffffffffffffffffff1673ffffffffffffffffffffffffffffffffffffffff163373ffffffffffffffffffffffffffffffffffffffff1614610d0257600080fd5b6005600086815260200190815260200160002060009054906101000a900473ffffffffffffffffffffffffffffffffffffffff1673ffffffffffffffffffffffffffffffffffffffff163373ffffffffffffffffffffffffffffffffffffffff1614610d6d57600080fd5b8360048681548110610d8257610d816126f5565b5b9060005260206000209060030201600101819055505050505050565b60006005600083815260200190815260200160002060009054906101000a900473ffffffffffffffffffffffffffffffffffffffff169050919050565b6000600660008373ffffffffffffffffffffffffffffffffffffffff1673ffffffffffffffffffffffffffffffffffffffff168152602001908152602001600020549050919050565b610e2c610f87565b610e3557600080fd5b600073ffffffffffffffffffffffffffffffffffffffff16600b60009054906101000a900473ffffffffffffffffffffffffffffffffffffffff1673ffffffffffffffffffffffffffffffffffffffff167f8be0079c531659141344cd1fd0a4f28419497f9722a3daafe3b4186f6b6457e060405160405180910390a36000600b60006101000a81548173ffffffffffffffffffffffffffffffffffffffff021916908373ffffffffffffffffffffffffffffffffffffffff160217905550565b6000600660003373ffffffffffffffffffffffffffffffffffffffff1673ffffffffffffffffffffffffffffffffffffffff1681526020019081526020016000205414610f4257600080fd5b6000610f4d82611845565b9050610f59828261188b565b5050565b6000600b60009054906101000a900473ffffffffffffffffffffffffffffffffffffffff16905090565b6000600b60009054906101000a900473ffffffffffffffffffffffffffffffffffffffff1673ffffffffffffffffffffffffffffffffffffffff163373ffffffffffffffffffffffffffffffffffffffff1614905090565b7f000000000000000000000000000000000000000000000000000000000000000073ffffffffffffffffffffffffffffffffffffffff163373ffffffffffffffffffffffffffffffffffffffff161461106d576040517f08c379a000000000000000000000000000000000000000000000000000000000815260040161106490612993565b60405180910390fd5b6110778282611b02565b5050565b6002828163ffffffff1660048281548110611099576110986126f5565b5b906000526020600020906003020160020160009054906101000a900463ffffffff1663ffffffff1610156110cc57600080fd5b836005600082815260200190815260200160002060009054906101000a900473ffffffffffffffffffffffffffffffffffffffff1673ffffffffffffffffffffffffffffffffffffffff163373ffffffffffffffffffffffffffffffffffffffff161461113857600080fd5b6005600086815260200190815260200160002060009054906101000a900473ffffffffffffffffffffffffffffffffffffffff1673ffffffffffffffffffffffffffffffffffffffff163373ffffffffffffffffffffffffffffffffffffffff16146111a357600080fd5b83600486815481106111b8576111b76126f5565b5b906000526020600020906003020160000190805190602001906111dc929190611f5c565b505050505050565b6111ec610f87565b6111f557600080fd5b80600c8190555050565b600061120f600754600854611b0d565b905090565b816005600082815260200190815260200160002060009054906101000a900473ffffffffffffffffffffffffffffffffffffffff1673ffffffffffffffffffffffffffffffffffffffff163373ffffffffffffffffffffffffffffffffffffffff161461128057600080fd5b600060048481548110611296576112956126f5565b5b906000526020600020906003020190506000600484815481106112bc576112bb6126f5565b5b9060005260206000209060030201905060006112d86064611c79565b9050600e54811161140c5761130d60018460020160089054906101000a900461ffff1661ffff16611cda90919063ffffffff16565b8360020160086101000a81548161ffff021916908361ffff16021790555061135960018460020160009054906101000a900463ffffffff1663ffffffff16611d0e90919063ffffffff16565b8360020160006101000a81548163ffffffff021916908363ffffffff1602179055506113a5600183600201600a9054906101000a900461ffff1661ffff16611cda90919063ffffffff16565b82600201600a6101000a81548161ffff021916908361ffff1602179055506114078683600101546040518060400160405280600681526020017f7a6f6d62696500000000000000000000000000000000000000000000000000008152506114cb565b6114a6565b611436600184600201600a9054906101000a900461ffff1661ffff16611cda90919063ffffffff16565b83600201600a6101000a81548161ffff021916908361ffff16021790555061147e60018360020160089054906101000a900461ffff1661ffff16611cda90919063ffffffff16565b8260020160086101000a81548161ffff021916908361ffff1602179055506114a583611d46565b5b505050505050565b6114b6610f87565b6114bf57600080fd5b6114c881611d79565b50565b826005600082815260200190815260200160002060009054906101000a900473ffffffffffffffffffffffffffffffffffffffff1673ffffffffffffffffffffffffffffffffffffffff163373ffffffffffffffffffffffffffffffffffffffff161461153757600080fd5b60006004858154811061154d5761154c6126f5565b5b9060005260206000209060030201905061156681611e72565b61156f57600080fd5b6002548461157d91906129e2565b9350600060028583600101546115939190612a13565b61159d9190612a69565b90506040516020016115ae90612af1565b60405160208183030381529060405280519060200120846040516020016115d59190612b37565b60405160208183030381529060405280519060200120036116175760636064826115ff91906129e2565b8261160a9190612b4e565b6116149190612a13565b90505b6116566040518060400160405280600681526020017f4e6f4e616d6500000000000000000000000000000000000000000000000000008152508261188b565b61165f82611d46565b505050505050565b6116ba6001600660008673ffffffffffffffffffffffffffffffffffffffff1673ffffffffffffffffffffffffffffffffffffffff16815260200190815260200160002054611e9990919063ffffffff16565b600660008573ffffffffffffffffffffffffffffffffffffffff1673ffffffffffffffffffffffffffffffffffffffff168152602001908152602001600020819055506117506001600660008573ffffffffffffffffffffffffffffffffffffffff1673ffffffffffffffffffffffffffffffffffffffff16815260200190815260200160002054611ec090919063ffffffff16565b600660008473ffffffffffffffffffffffffffffffffffffffff1673ffffffffffffffffffffffffffffffffffffffff16815260200190815260200160002081905550816005600083815260200190815260200160002060006101000a81548173ffffffffffffffffffffffffffffffffffffffff021916908373ffffffffffffffffffffffffffffffffffffffff160217905550808273ffffffffffffffffffffffffffffffffffffffff168473ffffffffffffffffffffffffffffffffffffffff167fddf252ad1be2c89b69c2b068fc378daa952ba7f163c4a11628f55a4df523b3ef60405160405180910390a4505050565b600080826040516020016118599190612b37565b604051602081830303815290604052805190602001206001900490506002548161188391906129e2565b915050919050565b60046040518060c00160405280848152602001838152602001600163ffffffff168152602001600354426118bf9190612a13565b63ffffffff168152602001600061ffff168152602001600061ffff1681525090806001815401808255809150506001900390600052602060002090600302016000909190919091506000820151816000019080519060200190611923929190611f5c565b506020820151816001015560408201518160020160006101000a81548163ffffffff021916908363ffffffff16021790555060608201518160020160046101000a81548163ffffffff021916908363ffffffff16021790555060808201518160020160086101000a81548161ffff021916908361ffff16021790555060a082015181600201600a6101000a81548161ffff021916908361ffff1602179055505050600060016004805490506119d89190612b4e565b9050336005600083815260200190815260200160002060006101000a81548173ffffffffffffffffffffffffffffffffffffffff021916908373ffffffffffffffffffffffffffffffffffffffff160217905550611a7f6001600660003373ffffffffffffffffffffffffffffffffffffffff1673ffffffffffffffffffffffffffffffffffffffff16815260200190815260200160002054611ec090919063ffffffff16565b600660003373ffffffffffffffffffffffffffffffffffffffff1673ffffffffffffffffffffffffffffffffffffffff168152602001908152602001600020819055507f88f026aacbbecc90c18411df4b1185fd8d9be2470f1962f192bf84a27d0704b7818484604051611af593929190612b82565b60405180910390a1505050565b806009819055505050565b60007f000000000000000000000000000000000000000000000000000000000000000073ffffffffffffffffffffffffffffffffffffffff16634000aea07f000000000000000000000000000000000000000000000000000000000000000084866000604051602001611b81929190612bc0565b6040516020818303038152906040526040518463ffffffff167c0100000000000000000000000000000000000000000000000000000000028152600401611bca93929190612c3e565b6020604051808303816000875af1158015611be9573d6000803e3d6000fd5b505050506040513d601f19601f82011682018060405250810190611c0d9190612c7c565b506000611c2f8460003060008089815260200190815260200160002054611eec565b9050600160008086815260200190815260200160002054611c509190612a13565b60008086815260200190815260200160002081905550611c708482611f29565b91505092915050565b6000611c916001600d54611ec090919063ffffffff16565b600d81905550814233600d54604051602001611caf93929190612d1e565b6040516020818303038152906040528051906020012060019004611cd391906129e2565b9050919050565b6000808284611ce99190612d5b565b90508361ffff168161ffff161015611d0457611d03612d93565b5b8091505092915050565b6000808284611d1d9190612dc2565b90508363ffffffff168163ffffffff161015611d3c57611d3b612d93565b5b8091505092915050565b60035442611d549190612a13565b8160020160046101000a81548163ffffffff021916908363ffffffff16021790555050565b600073ffffffffffffffffffffffffffffffffffffffff168173ffffffffffffffffffffffffffffffffffffffff1603611db257600080fd5b8073ffffffffffffffffffffffffffffffffffffffff16600b60009054906101000a900473ffffffffffffffffffffffffffffffffffffffff1673ffffffffffffffffffffffffffffffffffffffff167f8be0079c531659141344cd1fd0a4f28419497f9722a3daafe3b4186f6b6457e060405160405180910390a380600b60006101000a81548173ffffffffffffffffffffffffffffffffffffffff021916908373ffffffffffffffffffffffffffffffffffffffff16021790555050565b6000428260020160049054906101000a900463ffffffff1663ffffffff1611159050919050565b600082821115611eac57611eab612d93565b5b8183611eb89190612b4e565b905092915050565b6000808284611ecf9190612a13565b905083811015611ee257611ee1612d93565b5b8091505092915050565b600084848484604051602001611f059493929190612dfc565b60405160208183030381529060405280519060200120600190049050949350505050565b60008282604051602001611f3e929190612e62565b60405160208183030381529060405280519060200120905092915050565b828054611f68906128ce565b90600052602060002090601f016020900481019282611f8a5760008555611fd1565b82601f10611fa357805160ff1916838001178555611fd1565b82800160010185558215611fd1579182015b82811115611fd0578251825591602001919060010190611fb5565b5b509050611fde9190611fe2565b5090565b5b80821115611ffb576000816000905550600101611fe3565b5090565b6000604051905090565b600080fd5b600080fd5b600073ffffffffffffffffffffffffffffffffffffffff82169050919050565b600061203e82612013565b9050919050565b61204e81612033565b811461205957600080fd5b50565b60008135905061206b81612045565b92915050565b6000819050919050565b61208481612071565b811461208f57600080fd5b50565b6000813590506120a18161207b565b92915050565b600080604083850312156120be576120bd612009565b5b60006120cc8582860161205c565b92505060206120dd85828601612092565b9150509250929050565b6000602082840312156120fd576120fc612009565b5b600061210b84828501612092565b91505092915050565b6000806040838503121561212b5761212a612009565b5b600061213985828601612092565b925050602061214a85828601612092565b9150509250929050565b600081519050919050565b600082825260208201905092915050565b60005b8381101561218e578082015181840152602081019050612173565b8381111561219d576000848401525b50505050565b6000601f19601f8301169050919050565b60006121bf82612154565b6121c9818561215f565b93506121d9818560208601612170565b6121e2816121a3565b840191505092915050565b6121f681612071565b82525050565b600063ffffffff82169050919050565b612215816121fc565b82525050565b600061ffff82169050919050565b6122328161221b565b82525050565b600060c082019050818103600083015261225281896121b4565b905061226160208301886121ed565b61226e604083018761220c565b61227b606083018661220c565b6122886080830185612229565b61229560a0830184612229565b979650505050505050565b6000806000606084860312156122b9576122b8612009565b5b60006122c78682870161205c565b93505060206122d88682870161205c565b92505060406122e986828701612092565b9150509250925092565b600060208201905061230860008301846121ed565b92915050565b60006020828403121561232457612323612009565b5b60006123328482850161205c565b91505092915050565b600081519050919050565b600082825260208201905092915050565b6000819050602082019050919050565b61237081612071565b82525050565b60006123828383612367565b60208301905092915050565b6000602082019050919050565b60006123a68261233b565b6123b08185612346565b93506123bb83612357565b8060005b838110156123ec5781516123d38882612376565b97506123de8361238e565b9250506001810190506123bf565b5085935050505092915050565b60006020820190508181036000830152612413818461239b565b905092915050565b61242481612033565b82525050565b600060208201905061243f600083018461241b565b92915050565b600080fd5b600080fd5b7f4e487b7100000000000000000000000000000000000000000000000000000000600052604160045260246000fd5b612487826121a3565b810181811067ffffffffffffffff821117156124a6576124a561244f565b5b80604052505050565b60006124b9611fff565b90506124c5828261247e565b919050565b600067ffffffffffffffff8211156124e5576124e461244f565b5b6124ee826121a3565b9050602081019050919050565b82818337600083830152505050565b600061251d612518846124ca565b6124af565b9050828152602081018484840111156125395761253861244a565b5b6125448482856124fb565b509392505050565b600082601f83011261256157612560612445565b5b813561257184826020860161250a565b91505092915050565b6000602082840312156125905761258f612009565b5b600082013567ffffffffffffffff8111156125ae576125ad61200e565b5b6125ba8482850161254c565b91505092915050565b60008115159050919050565b6125d8816125c3565b82525050565b60006020820190506125f360008301846125cf565b92915050565b6000819050919050565b61260c816125f9565b811461261757600080fd5b50565b60008135905061262981612603565b92915050565b6000806040838503121561264657612645612009565b5b60006126548582860161261a565b925050602061266585828601612092565b9150509250929050565b6000806040838503121561268657612685612009565b5b600061269485828601612092565b925050602083013567ffffffffffffffff8111156126b5576126b461200e565b5b6126c18582860161254c565b9150509250929050565b6126d4816125f9565b82525050565b60006020820190506126ef60008301846126cb565b92915050565b7f4e487b7100000000000000000000000000000000000000000000000000000000600052603260045260246000fd5b7f4e487b7100000000000000000000000000000000000000000000000000000000600052601160045260246000fd5b600061275e826121fc565b915063ffffffff820361277457612773612724565b5b600182019050919050565b612788816125c3565b811461279357600080fd5b50565b6000815190506127a58161277f565b92915050565b6000815190506127ba8161207b565b92915050565b6000806000806000806000806000806101408b8d0312156127e4576127e3612009565b5b60006127f28d828e01612796565b9a505060206128038d828e01612796565b99505060406128148d828e016127ab565b98505060606128258d828e016127ab565b97505060806128368d828e016127ab565b96505060a06128478d828e016127ab565b95505060c06128588d828e016127ab565b94505060e06128698d828e016127ab565b93505061010061287b8d828e016127ab565b92505061012061288d8d828e016127ab565b9150509295989b9194979a5092959850565b7f4e487b7100000000000000000000000000000000000000000000000000000000600052602260045260246000fd5b600060028204905060018216806128e657607f821691505b6020821081036128f9576128f861289f565b5b50919050565b600061290a82612071565b91507fffffffffffffffffffffffffffffffffffffffffffffffffffffffffffffffff820361293c5761293b612724565b5b600182019050919050565b7f4f6e6c7920565246436f6f7264696e61746f722063616e2066756c66696c6c00600082015250565b600061297d601f8361215f565b915061298882612947565b602082019050919050565b600060208201905081810360008301526129ac81612970565b9050919050565b7f4e487b7100000000000000000000000000000000000000000000000000000000600052601260045260246000fd5b60006129ed82612071565b91506129f883612071565b925082612a0857612a076129b3565b5b828206905092915050565b6000612a1e82612071565b9150612a2983612071565b9250827fffffffffffffffffffffffffffffffffffffffffffffffffffffffffffffffff03821115612a5e57612a5d612724565b5b828201905092915050565b6000612a7482612071565b9150612a7f83612071565b925082612a8f57612a8e6129b3565b5b828204905092915050565b600081905092915050565b7f6b69747479000000000000000000000000000000000000000000000000000000600082015250565b6000612adb600583612a9a565b9150612ae682612aa5565b600582019050919050565b6000612afc82612ace565b9150819050919050565b6000612b1182612154565b612b1b8185612a9a565b9350612b2b818560208601612170565b80840191505092915050565b6000612b438284612b06565b915081905092915050565b6000612b5982612071565b9150612b6483612071565b925082821015612b7757612b76612724565b5b828203905092915050565b6000606082019050612b9760008301866121ed565b8181036020830152612ba981856121b4565b9050612bb860408301846121ed565b949350505050565b6000604082019050612bd560008301856126cb565b612be260208301846121ed565b9392505050565b600081519050919050565b600082825260208201905092915050565b6000612c1082612be9565b612c1a8185612bf4565b9350612c2a818560208601612170565b612c33816121a3565b840191505092915050565b6000606082019050612c53600083018661241b565b612c6060208301856121ed565b8181036040830152612c728184612c05565b9050949350505050565b600060208284031215612c9257612c91612009565b5b6000612ca084828501612796565b91505092915050565b6000819050919050565b612cc4612cbf82612071565b612ca9565b82525050565b60006c0100000000000000000000000082029050919050565b6000612cee82612cca565b9050919050565b6000612d0082612ce3565b9050919050565b612d18612d1382612033565b612cf5565b82525050565b6000612d2a8286612cb3565b602082019150612d3a8285612d07565b601482019150612d4a8284612cb3565b602082019150819050949350505050565b6000612d668261221b565b9150612d718361221b565b92508261ffff03821115612d8857612d87612724565b5b828201905092915050565b7f4e487b7100000000000000000000000000000000000000000000000000000000600052600160045260246000fd5b6000612dcd826121fc565b9150612dd8836121fc565b92508263ffffffff03821115612df157612df0612724565b5b828201905092915050565b6000608082019050612e1160008301876126cb565b612e1e60208301866121ed565b612e2b604083018561241b565b612e3860608301846121ed565b95945050505050565b6000819050919050565b612e5c612e57826125f9565b612e41565b82525050565b6000612e6e8285612e4b565b602082019150612e7e8284612cb3565b602082019150819050939250505056fea2646970667358221220a11dc844cb82265ed48a98ab79dde9de6768078bbf286b3b8c0a2cba662072ca64736f6c634300080e0033",
  "immutableReferences": {
    "73": [
      {
        "length": 32,
        "start": 6929
      }
    ],
    "75": [
      {
        "length": 32,
        "start": 4065
      },
      {
        "length": 32,
        "start": 6989
      }
    ]
  },
  "source": "// SPDX-License-Identifier: MIT\npragma solidity >=0.4.22 <0.9.0;\n\nimport \"./ZombieAttack.sol\";\nimport \"./interface/IERC721.sol\";\nimport \"./lib/SafeMath.sol\";\n\ncontract ZombieOwnership is ZombieAttack, IERC721 {\n    using SafeMath for uint256;\n\n    mapping(uint256 => address) zombieApprovals;\n\n    function balanceOf(address _owner) external view returns (uint256) {\n        return ownerZombieCount[_owner];\n    }\n\n    function ownerOf(uint256 _tokenId) external view returns (address) {\n        return zombieToOwner[_tokenId];\n    }\n\n    function _transfer(\n        address _from,\n        address _to,\n        uint256 _tokenId\n    ) private {\n        ownerZombieCount[_from] = ownerZombieCount[_from].sub(1);\n        ownerZombieCount[_to] = ownerZombieCount[_to].add(1);\n        zombieToOwner[_tokenId] = _to;\n        emit Transfer(_from, _to, _tokenId);\n    }\n\n    function transferFrom(\n        address _from,\n        address _to,\n        uint256 _tokenId\n    ) external payable {\n        require(\n            zombieToOwner[_tokenId] == msg.sender ||\n                zombieApprovals[_tokenId] == msg.sender\n        );\n        _transfer(_from, _to, _tokenId);\n    }\n\n    function approve(address _approved, uint256 _tokenId)\n        external\n        payable\n        onlyOwnerOf(_tokenId)\n    {\n        zombieApprovals[_tokenId] = _approved;\n        emit Approval(msg.sender, _approved, _tokenId);\n    }\n}\n",
  "sourcePath": "D:\\Todo\\solidity-evm\\cryptozombies-truffle\\contracts\\ZombieOwnership.sol",
  "compiler": {
    "name": "solc",
    "version": "0.8.14+commit.80d49f37.Emscripten.clang"
  },
  "schemaVersion": "3.4.7",
  "updatedAt": "2022-09-12T16:38:36.856Z",
  "devdoc": {
    "kind": "dev",
    "methods": {},
    "version": 1
  },
  "userdoc": {
    "kind": "user",
    "methods": {},
    "version": 1
  }
}