{
  "contractName": "ZombieFactory",
  "abi": [
    {
      "inputs": [],
      "stateMutability": "nonpayable",
      "type": "constructor"
    },
    {
      "anonymous": false,
      "inputs": [
        {
          "indexed": false,
          "internalType": "uint256",
          "name": "zombieId",
          "type": "uint256"
        },
        {
          "indexed": false,
          "internalType": "string",
          "name": "name",
          "type": "string"
        },
        {
          "indexed": false,
          "internalType": "uint256",
          "name": "dna",
          "type": "uint256"
        }
      ],
      "name": "NewZombie",
      "type": "event"
    },
    {
      "inputs": [],
      "name": "randomResult",
      "outputs": [
        {
          "internalType": "uint256",
          "name": "",
          "type": "uint256"
        }
      ],
      "stateMutability": "view",
      "type": "function"
    },
    {
      "inputs": [
        {
          "internalType": "bytes32",
          "name": "requestId",
          "type": "bytes32"
        },
        {
          "internalType": "uint256",
          "name": "randomness",
          "type": "uint256"
        }
      ],
      "name": "rawFulfillRandomness",
      "outputs": [],
      "stateMutability": "nonpayable",
      "type": "function"
    },
    {
      "inputs": [
        {
          "internalType": "uint256",
          "name": "",
          "type": "uint256"
        }
      ],
      "name": "zombieToOwner",
      "outputs": [
        {
          "internalType": "address",
          "name": "",
          "type": "address"
        }
      ],
      "stateMutability": "view",
      "type": "function"
    },
    {
      "inputs": [
        {
          "internalType": "uint256",
          "name": "",
          "type": "uint256"
        }
      ],
      "name": "zombies",
      "outputs": [
        {
          "internalType": "string",
          "name": "name",
          "type": "string"
        },
        {
          "internalType": "uint256",
          "name": "dna",
          "type": "uint256"
        },
        {
          "internalType": "uint32",
          "name": "level",
          "type": "uint32"
        },
        {
          "internalType": "uint32",
          "name": "readyTime",
          "type": "uint32"
        },
        {
          "internalType": "uint16",
          "name": "winCount",
          "type": "uint16"
        },
        {
          "internalType": "uint16",
          "name": "lossCount",
          "type": "uint16"
        }
      ],
      "stateMutability": "view",
      "type": "function"
    },
    {
      "inputs": [],
      "name": "getRandomNumber",
      "outputs": [
        {
          "internalType": "bytes32",
          "name": "requestId",
          "type": "bytes32"
        }
      ],
      "stateMutability": "nonpayable",
      "type": "function"
    },
    {
      "inputs": [
        {
          "internalType": "string",
          "name": "_name",
          "type": "string"
        }
      ],
      "name": "createRandomZombie",
      "outputs": [],
      "stateMutability": "nonpayable",
      "type": "function"
    }
  ],
  "bytecode": "0x60c06040526010600160006101000a81548160ff021916908360ff160217905550600160009054906101000a900460ff16600a6200003e9190620002c3565b600255620151806003553480156200005557600080fd5b50732bce784e69d2ff36c71edcb9f88358db0dfb55b473326c977e6efc84e512bb9c30f76e30c160ed06fb8173ffffffffffffffffffffffffffffffffffffffff1660a08173ffffffffffffffffffffffffffffffffffffffff16815250508073ffffffffffffffffffffffffffffffffffffffff1660808173ffffffffffffffffffffffffffffffffffffffff168152505050507f0476f9a745b61ea5c0ab224d3a6e4c99f0b02fce4da01143a4f70aa80ae76e8a60010260078190555067016345785d8a000060088190555062000314565b7f4e487b7100000000000000000000000000000000000000000000000000000000600052601160045260246000fd5b6000600282049050919050565b6000808291508390505b6001851115620001b7578086048111156200018f576200018e62000129565b5b60018516156200019f5780820291505b8081029050620001af8562000158565b94506200016f565b94509492505050565b600082620001d25760019050620002a5565b81620001e25760009050620002a5565b8160018114620001fb576002811462000206576200023c565b6001915050620002a5565b60ff8411156200021b576200021a62000129565b5b8360020a91508482111562000235576200023462000129565b5b50620002a5565b5060208310610133831016604e8410600b8410161715620002765782820a90508381111562000270576200026f62000129565b5b620002a5565b62000285848484600162000165565b925090508184048111156200029f576200029e62000129565b5b81810290505b9392505050565b6000819050919050565b600060ff82169050919050565b6000620002d082620002ac565b9150620002dd83620002b6565b92506200030c7fffffffffffffffffffffffffffffffffffffffffffffffffffffffffffffffff8484620001c0565b905092915050565b60805160a051611238620003416000396000818161030f01526106c60152600061068a01526112386000f3fe608060405234801561001057600080fd5b506004361061007f576000357c0100000000000000000000000000000000000000000000000000000000900480632052465e1461008457806342619f66146100b9578063528b7b8f146100d75780637bff0a011461010757806394985ddd14610123578063dbdff2c11461013f575b600080fd5b61009e6004803603810190610099919061097b565b61015d565b6040516100b096959493929190610a8c565b60405180910390f35b6100c161026d565b6040516100ce9190610af4565b60405180910390f35b6100f160048036038101906100ec919061097b565b610273565b6040516100fe9190610b50565b60405180910390f35b610121600480360381019061011c9190610ca0565b6102a6565b005b61013d60048036038101906101389190610d1f565b61030d565b005b6101476103a9565b6040516101549190610d6e565b60405180910390f35b6004818154811061016d57600080fd5b906000526020600020906003020160009150905080600001805461019090610db8565b80601f01602080910402602001604051908101604052809291908181526020018280546101bc90610db8565b80156102095780601f106101de57610100808354040283529160200191610209565b820191906000526020600020905b8154815290600101906020018083116101ec57829003601f168201915b5050505050908060010154908060020160009054906101000a900463ffffffff16908060020160049054906101000a900463ffffffff16908060020160089054906101000a900461ffff169080600201600a9054906101000a900461ffff16905086565b60095481565b60056020528060005260406000206000915054906101000a900473ffffffffffffffffffffffffffffffffffffffff1681565b6000600660003373ffffffffffffffffffffffffffffffffffffffff1673ffffffffffffffffffffffffffffffffffffffff16815260200190815260200160002054146102f257600080fd5b60006102fd826103be565b90506103098282610404565b5050565b7f000000000000000000000000000000000000000000000000000000000000000073ffffffffffffffffffffffffffffffffffffffff163373ffffffffffffffffffffffffffffffffffffffff161461039b576040517f08c379a000000000000000000000000000000000000000000000000000000000815260040161039290610e35565b60405180910390fd5b6103a5828261067b565b5050565b60006103b9600754600854610686565b905090565b600080826040516020016103d29190610e91565b60405160208183030381529060405280519060200120600190049050600254816103fc9190610ed7565b915050919050565b60046040518060c00160405280848152602001838152602001600163ffffffff168152602001600354426104389190610f37565b63ffffffff168152602001600061ffff168152602001600061ffff168152509080600181540180825580915050600190039060005260206000209060030201600090919091909150600082015181600001908051906020019061049c92919061088e565b506020820151816001015560408201518160020160006101000a81548163ffffffff021916908363ffffffff16021790555060608201518160020160046101000a81548163ffffffff021916908363ffffffff16021790555060808201518160020160086101000a81548161ffff021916908361ffff16021790555060a082015181600201600a6101000a81548161ffff021916908361ffff1602179055505050600060016004805490506105519190610f8d565b9050336005600083815260200190815260200160002060006101000a81548173ffffffffffffffffffffffffffffffffffffffff021916908373ffffffffffffffffffffffffffffffffffffffff1602179055506105f86001600660003373ffffffffffffffffffffffffffffffffffffffff1673ffffffffffffffffffffffffffffffffffffffff168152602001908152602001600020546107f290919063ffffffff16565b600660003373ffffffffffffffffffffffffffffffffffffffff1673ffffffffffffffffffffffffffffffffffffffff168152602001908152602001600020819055507f88f026aacbbecc90c18411df4b1185fd8d9be2470f1962f192bf84a27d0704b781848460405161066e93929190610fc1565b60405180910390a1505050565b806009819055505050565b60007f000000000000000000000000000000000000000000000000000000000000000073ffffffffffffffffffffffffffffffffffffffff16634000aea07f0000000000000000000000000000000000000000000000000000000000000000848660006040516020016106fa929190610fff565b6040516020818303038152906040526040518463ffffffff167c01000000000000000000000000000000000000000000000000000000000281526004016107439392919061107d565b6020604051808303816000875af1158015610762573d6000803e3d6000fd5b505050506040513d601f19601f8201168201806040525081019061078691906110f3565b5060006107a8846000306000808981526020019081526020016000205461081e565b90506001600080868152602001908152602001600020546107c99190610f37565b600080868152602001908152602001600020819055506107e9848261085b565b91505092915050565b60008082846108019190610f37565b90508381101561081457610813611120565b5b8091505092915050565b600084848484604051602001610837949392919061114f565b60405160208183030381529060405280519060200120600190049050949350505050565b600082826040516020016108709291906111d6565b60405160208183030381529060405280519060200120905092915050565b82805461089a90610db8565b90600052602060002090601f0160209004810192826108bc5760008555610903565b82601f106108d557805160ff1916838001178555610903565b82800160010185558215610903579182015b828111156109025782518255916020019190600101906108e7565b5b5090506109109190610914565b5090565b5b8082111561092d576000816000905550600101610915565b5090565b6000604051905090565b600080fd5b600080fd5b6000819050919050565b61095881610945565b811461096357600080fd5b50565b6000813590506109758161094f565b92915050565b6000602082840312156109915761099061093b565b5b600061099f84828501610966565b91505092915050565b600081519050919050565b600082825260208201905092915050565b60005b838110156109e25780820151818401526020810190506109c7565b838111156109f1576000848401525b50505050565b6000601f19601f8301169050919050565b6000610a13826109a8565b610a1d81856109b3565b9350610a2d8185602086016109c4565b610a36816109f7565b840191505092915050565b610a4a81610945565b82525050565b600063ffffffff82169050919050565b610a6981610a50565b82525050565b600061ffff82169050919050565b610a8681610a6f565b82525050565b600060c0820190508181036000830152610aa68189610a08565b9050610ab56020830188610a41565b610ac26040830187610a60565b610acf6060830186610a60565b610adc6080830185610a7d565b610ae960a0830184610a7d565b979650505050505050565b6000602082019050610b096000830184610a41565b92915050565b600073ffffffffffffffffffffffffffffffffffffffff82169050919050565b6000610b3a82610b0f565b9050919050565b610b4a81610b2f565b82525050565b6000602082019050610b656000830184610b41565b92915050565b600080fd5b600080fd5b7f4e487b7100000000000000000000000000000000000000000000000000000000600052604160045260246000fd5b610bad826109f7565b810181811067ffffffffffffffff82111715610bcc57610bcb610b75565b5b80604052505050565b6000610bdf610931565b9050610beb8282610ba4565b919050565b600067ffffffffffffffff821115610c0b57610c0a610b75565b5b610c14826109f7565b9050602081019050919050565b82818337600083830152505050565b6000610c43610c3e84610bf0565b610bd5565b905082815260208101848484011115610c5f57610c5e610b70565b5b610c6a848285610c21565b509392505050565b600082601f830112610c8757610c86610b6b565b5b8135610c97848260208601610c30565b91505092915050565b600060208284031215610cb657610cb561093b565b5b600082013567ffffffffffffffff811115610cd457610cd3610940565b5b610ce084828501610c72565b91505092915050565b6000819050919050565b610cfc81610ce9565b8114610d0757600080fd5b50565b600081359050610d1981610cf3565b92915050565b60008060408385031215610d3657610d3561093b565b5b6000610d4485828601610d0a565b9250506020610d5585828601610966565b9150509250929050565b610d6881610ce9565b82525050565b6000602082019050610d836000830184610d5f565b92915050565b7f4e487b7100000000000000000000000000000000000000000000000000000000600052602260045260246000fd5b60006002820490506001821680610dd057607f821691505b602082108103610de357610de2610d89565b5b50919050565b7f4f6e6c7920565246436f6f7264696e61746f722063616e2066756c66696c6c00600082015250565b6000610e1f601f836109b3565b9150610e2a82610de9565b602082019050919050565b60006020820190508181036000830152610e4e81610e12565b9050919050565b600081905092915050565b6000610e6b826109a8565b610e758185610e55565b9350610e858185602086016109c4565b80840191505092915050565b6000610e9d8284610e60565b915081905092915050565b7f4e487b7100000000000000000000000000000000000000000000000000000000600052601260045260246000fd5b6000610ee282610945565b9150610eed83610945565b925082610efd57610efc610ea8565b5b828206905092915050565b7f4e487b7100000000000000000000000000000000000000000000000000000000600052601160045260246000fd5b6000610f4282610945565b9150610f4d83610945565b9250827fffffffffffffffffffffffffffffffffffffffffffffffffffffffffffffffff03821115610f8257610f81610f08565b5b828201905092915050565b6000610f9882610945565b9150610fa383610945565b925082821015610fb657610fb5610f08565b5b828203905092915050565b6000606082019050610fd66000830186610a41565b8181036020830152610fe88185610a08565b9050610ff76040830184610a41565b949350505050565b60006040820190506110146000830185610d5f565b6110216020830184610a41565b9392505050565b600081519050919050565b600082825260208201905092915050565b600061104f82611028565b6110598185611033565b93506110698185602086016109c4565b611072816109f7565b840191505092915050565b60006060820190506110926000830186610b41565b61109f6020830185610a41565b81810360408301526110b18184611044565b9050949350505050565b60008115159050919050565b6110d0816110bb565b81146110db57600080fd5b50565b6000815190506110ed816110c7565b92915050565b6000602082840312156111095761110861093b565b5b6000611117848285016110de565b91505092915050565b7f4e487b7100000000000000000000000000000000000000000000000000000000600052600160045260246000fd5b60006080820190506111646000830187610d5f565b6111716020830186610a41565b61117e6040830185610b41565b61118b6060830184610a41565b95945050505050565b6000819050919050565b6111af6111aa82610ce9565b611194565b82525050565b6000819050919050565b6111d06111cb82610945565b6111b5565b82525050565b60006111e2828561119e565b6020820191506111f282846111bf565b602082019150819050939250505056fea2646970667358221220e07c01eb059188b5667f4093ed2a9e9e2eb49640ed2aa5287545504b7e73c06964736f6c634300080e0033",
  "immutableReferences": {
    "73": [
      {
        "length": 32,
        "start": 1674
      }
    ],
    "75": [
      {
        "length": 32,
        "start": 783
      },
      {
        "length": 32,
        "start": 1734
      }
    ]
  },
  "source": "// SPDX-License-Identifier: MIT\npragma solidity >=0.4.22 <0.9.0;\n\nimport \"@chainlink/contracts/src/v0.8/VRFConsumerBase.sol\";\nimport \"./Ownable.sol\";\nimport \"./lib/SafeMath.sol\";\n\ncontract ZombieFactory is VRFConsumerBase {\n    uint8 dnaDigits = 16;\n    uint256 dnaModulus = 10**dnaDigits;\n    uint256 cooldownTime = 1 days;\n\n    // bytes32 public keyHash;\n    // uint256 public fee;\n    // uint256 public randomResult;\n\n    event NewZombie(uint256 zombieId, string name, uint256 dna);\n\n    using SafeMath for uint256;\n    using SafeMath32 for uint32;\n    using SafeMath16 for uint16;\n\n    struct Zombie {\n        string name;\n        uint256 dna;\n        uint32 level;\n        uint32 readyTime;\n        uint16 winCount;\n        uint16 lossCount;\n    }\n\n    Zombie[] public zombies;\n\n    mapping(uint256 => address) public zombieToOwner;\n    mapping(address => uint256) ownerZombieCount;\n\n    bytes32 internal keyHash;\n    uint256 internal fee;\n    uint256 public randomResult;\n\n    constructor()\n        VRFConsumerBase(\n            0x2bce784e69d2Ff36c71edcB9F88358dB0DfB55b4,\n            0x326C977E6efc84E512bB9C30f76E30c160eD06FB\n        )\n    {\n        keyHash = 0x0476f9a745b61ea5c0ab224d3a6e4c99f0b02fce4da01143a4f70aa80ae76e8a;\n        fee = 0.1 * 10**18;\n    }\n\n    function _createZombie(string memory _name, uint256 _dna) internal {\n        zombies.push(\n            Zombie(_name, _dna, 1, uint32(block.timestamp + cooldownTime), 0, 0)\n        );\n        uint256 id = zombies.length - 1;\n\n        zombieToOwner[id] = msg.sender;\n        ownerZombieCount[msg.sender] = ownerZombieCount[msg.sender].add(1);\n\n        emit NewZombie(id, _name, _dna);\n    }\n\n    function getRandomNumber() public returns (bytes32 requestId) {\n        return requestRandomness(keyHash, fee);\n    }\n\n    function fulfillRandomness(bytes32 requestId, uint256 randomness)\n        internal\n        override\n    {\n        randomResult = randomness;\n    }\n\n    function _generateRandomDna(string memory _str)\n        private\n        view\n        returns (uint256)\n    {\n        uint256 rand = uint256(keccak256(abi.encodePacked(_str)));\n        return rand % dnaModulus;\n    }\n\n    function createRandomZombie(string memory _name) public {\n        require(ownerZombieCount[msg.sender] == 0);\n        uint256 randDna = _generateRandomDna(_name);\n        _createZombie(_name, randDna);\n    }\n}\n",
  "sourcePath": "D:\\Todo\\solidity-evm\\cryptozombies-truffle\\contracts\\ZombieFactory.sol",
  "compiler": {
    "name": "solc",
    "version": "0.8.14+commit.80d49f37.Emscripten.clang"
  },
  "schemaVersion": "3.4.7",
  "updatedAt": "2022-09-12T16:38:36.839Z",
  "devdoc": {
    "kind": "dev",
    "methods": {},
    "version": 1
  },
  "userdoc": {
    "kind": "user",
    "methods": {},
    "version": 1
  }
}