{
  "contractName": "ZombieFeeding",
  "abi": [
    {
      "anonymous": false,
      "inputs": [
        {
          "indexed": false,
          "internalType": "uint256",
          "name": "zombieId",
          "type": "uint256"
        },
        {
          "indexed": false,
          "internalType": "string",
          "name": "name",
          "type": "string"
        },
        {
          "indexed": false,
          "internalType": "uint256",
          "name": "dna",
          "type": "uint256"
        }
      ],
      "name": "NewZombie",
      "type": "event"
    },
    {
      "inputs": [
        {
          "internalType": "string",
          "name": "_name",
          "type": "string"
        }
      ],
      "name": "createRandomZombie",
      "outputs": [],
      "stateMutability": "nonpayable",
      "type": "function"
    },
    {
      "inputs": [],
      "name": "getRandomNumber",
      "outputs": [
        {
          "internalType": "bytes32",
          "name": "requestId",
          "type": "bytes32"
        }
      ],
      "stateMutability": "nonpayable",
      "type": "function"
    },
    {
      "inputs": [],
      "name": "randomResult",
      "outputs": [
        {
          "internalType": "uint256",
          "name": "",
          "type": "uint256"
        }
      ],
      "stateMutability": "view",
      "type": "function"
    },
    {
      "inputs": [
        {
          "internalType": "bytes32",
          "name": "requestId",
          "type": "bytes32"
        },
        {
          "internalType": "uint256",
          "name": "randomness",
          "type": "uint256"
        }
      ],
      "name": "rawFulfillRandomness",
      "outputs": [],
      "stateMutability": "nonpayable",
      "type": "function"
    },
    {
      "inputs": [
        {
          "internalType": "uint256",
          "name": "",
          "type": "uint256"
        }
      ],
      "name": "zombieToOwner",
      "outputs": [
        {
          "internalType": "address",
          "name": "",
          "type": "address"
        }
      ],
      "stateMutability": "view",
      "type": "function"
    },
    {
      "inputs": [
        {
          "internalType": "uint256",
          "name": "",
          "type": "uint256"
        }
      ],
      "name": "zombies",
      "outputs": [
        {
          "internalType": "string",
          "name": "name",
          "type": "string"
        },
        {
          "internalType": "uint256",
          "name": "dna",
          "type": "uint256"
        },
        {
          "internalType": "uint32",
          "name": "level",
          "type": "uint32"
        },
        {
          "internalType": "uint32",
          "name": "readyTime",
          "type": "uint32"
        },
        {
          "internalType": "uint16",
          "name": "winCount",
          "type": "uint16"
        },
        {
          "internalType": "uint16",
          "name": "lossCount",
          "type": "uint16"
        }
      ],
      "stateMutability": "view",
      "type": "function"
    },
    {
      "inputs": [
        {
          "internalType": "address",
          "name": "_address",
          "type": "address"
        }
      ],
      "name": "setKittyContractAddress",
      "outputs": [],
      "stateMutability": "nonpayable",
      "type": "function"
    },
    {
      "inputs": [
        {
          "internalType": "uint256",
          "name": "_zombieId",
          "type": "uint256"
        },
        {
          "internalType": "uint256",
          "name": "_kittyId",
          "type": "uint256"
        }
      ],
      "name": "feedOnKitty",
      "outputs": [],
      "stateMutability": "nonpayable",
      "type": "function"
    }
  ],
  "bytecode": "0x60c06040526010600160006101000a81548160ff021916908360ff160217905550600160009054906101000a900460ff16600a6200003e9190620002c3565b600255620151806003553480156200005557600080fd5b50732bce784e69d2ff36c71edcb9f88358db0dfb55b473326c977e6efc84e512bb9c30f76e30c160ed06fb8173ffffffffffffffffffffffffffffffffffffffff1660a08173ffffffffffffffffffffffffffffffffffffffff16815250508073ffffffffffffffffffffffffffffffffffffffff1660808173ffffffffffffffffffffffffffffffffffffffff168152505050507f0476f9a745b61ea5c0ab224d3a6e4c99f0b02fce4da01143a4f70aa80ae76e8a60010260078190555067016345785d8a000060088190555062000314565b7f4e487b7100000000000000000000000000000000000000000000000000000000600052601160045260246000fd5b6000600282049050919050565b6000808291508390505b6001851115620001b7578086048111156200018f576200018e62000129565b5b60018516156200019f5780820291505b8081029050620001af8562000158565b94506200016f565b94509492505050565b600082620001d25760019050620002a5565b81620001e25760009050620002a5565b8160018114620001fb576002811462000206576200023c565b6001915050620002a5565b60ff8411156200021b576200021a62000129565b5b8360020a91508482111562000235576200023462000129565b5b50620002a5565b5060208310610133831016604e8410600b8410161715620002765782820a90508381111562000270576200026f62000129565b5b620002a5565b62000285848484600162000165565b925090508184048111156200029f576200029e62000129565b5b81810290505b9392505050565b6000819050919050565b600060ff82169050919050565b6000620002d082620002ac565b9150620002dd83620002b6565b92506200030c7fffffffffffffffffffffffffffffffffffffffffffffffffffffffffffffffff8484620001c0565b905092915050565b60805160a05161185862000341600039600081816104eb0152610a3e01526000610a0201526118586000f3fe608060405234801561001057600080fd5b50600436106100a5576000357c0100000000000000000000000000000000000000000000000000000000900480635f4623f1116100785780635f4623f1146101495780637bff0a011461016557806394985ddd14610181578063dbdff2c11461019d576100a5565b806317a7f4cc146100aa5780632052465e146100c657806342619f66146100fb578063528b7b8f14610119575b600080fd5b6100c460048036038101906100bf9190610d4d565b6101bb565b005b6100e060048036038101906100db9190610d8d565b6102f5565b6040516100f296959493929190610e9e565b60405180910390f35b610103610405565b6040516101109190610f06565b60405180910390f35b610133600480360381019061012e9190610d8d565b61040b565b6040516101409190610f62565b60405180910390f35b610163600480360381019061015e9190610fa9565b61043e565b005b61017f600480360381019061017a919061110b565b610482565b005b61019b6004803603810190610196919061118a565b6104e9565b005b6101a5610585565b6040516101b291906111d9565b60405180910390f35b6000600a60009054906101000a900473ffffffffffffffffffffffffffffffffffffffff1673ffffffffffffffffffffffffffffffffffffffff1663e98b7f4d836040518263ffffffff167c01000000000000000000000000000000000000000000000000000000000281526004016102349190610f06565b61014060405180830381865afa158015610252573d6000803e3d6000fd5b505050506040513d601f19601f820116820180604052508101906102769190611241565b909192939495969798509091929394959697509091929394959650909192939495509091929394509091929350909192509091509050809150506102f083826040518060400160405280600581526020017f6b6974747900000000000000000000000000000000000000000000000000000081525061059a565b505050565b6004818154811061030557600080fd5b90600052602060002090600302016000915090508060000180546103289061134f565b80601f01602080910402602001604051908101604052809291908181526020018280546103549061134f565b80156103a15780601f10610376576101008083540402835291602001916103a1565b820191906000526020600020905b81548152906001019060200180831161038457829003601f168201915b5050505050908060010154908060020160009054906101000a900463ffffffff16908060020160049054906101000a900463ffffffff16908060020160089054906101000a900461ffff169080600201600a9054906101000a900461ffff16905086565b60095481565b60056020528060005260406000206000915054906101000a900473ffffffffffffffffffffffffffffffffffffffff1681565b80600a60006101000a81548173ffffffffffffffffffffffffffffffffffffffff021916908373ffffffffffffffffffffffffffffffffffffffff16021790555050565b6000600660003373ffffffffffffffffffffffffffffffffffffffff1673ffffffffffffffffffffffffffffffffffffffff16815260200190815260200160002054146104ce57600080fd5b60006104d982610736565b90506104e5828261077c565b5050565b7f000000000000000000000000000000000000000000000000000000000000000073ffffffffffffffffffffffffffffffffffffffff163373ffffffffffffffffffffffffffffffffffffffff1614610577576040517f08c379a000000000000000000000000000000000000000000000000000000000815260040161056e906113cc565b60405180910390fd5b61058182826109f3565b5050565b60006105956007546008546109fe565b905090565b826005600082815260200190815260200160002060009054906101000a900473ffffffffffffffffffffffffffffffffffffffff1673ffffffffffffffffffffffffffffffffffffffff163373ffffffffffffffffffffffffffffffffffffffff161461060657600080fd5b60006004858154811061061c5761061b6113ec565b5b9060005260206000209060030201905061063581610b6a565b61063e57600080fd5b6002548461064c919061144a565b93506000600285836001015461066291906114aa565b61066c9190611500565b905060405160200161067d90611588565b60405160208183030381529060405280519060200120846040516020016106a491906115ce565b60405160208183030381529060405280519060200120036106e65760636064826106ce919061144a565b826106d991906115e5565b6106e391906114aa565b90505b6107256040518060400160405280600681526020017f4e6f4e616d6500000000000000000000000000000000000000000000000000008152508261077c565b61072e82610b91565b505050505050565b6000808260405160200161074a91906115ce565b6040516020818303038152906040528051906020012060019004905060025481610774919061144a565b915050919050565b60046040518060c00160405280848152602001838152602001600163ffffffff168152602001600354426107b091906114aa565b63ffffffff168152602001600061ffff168152602001600061ffff1681525090806001815401808255809150506001900390600052602060002090600302016000909190919091506000820151816000019080519060200190610814929190610c60565b506020820151816001015560408201518160020160006101000a81548163ffffffff021916908363ffffffff16021790555060608201518160020160046101000a81548163ffffffff021916908363ffffffff16021790555060808201518160020160086101000a81548161ffff021916908361ffff16021790555060a082015181600201600a6101000a81548161ffff021916908361ffff1602179055505050600060016004805490506108c991906115e5565b9050336005600083815260200190815260200160002060006101000a81548173ffffffffffffffffffffffffffffffffffffffff021916908373ffffffffffffffffffffffffffffffffffffffff1602179055506109706001600660003373ffffffffffffffffffffffffffffffffffffffff1673ffffffffffffffffffffffffffffffffffffffff16815260200190815260200160002054610bc490919063ffffffff16565b600660003373ffffffffffffffffffffffffffffffffffffffff1673ffffffffffffffffffffffffffffffffffffffff168152602001908152602001600020819055507f88f026aacbbecc90c18411df4b1185fd8d9be2470f1962f192bf84a27d0704b78184846040516109e693929190611619565b60405180910390a1505050565b806009819055505050565b60007f000000000000000000000000000000000000000000000000000000000000000073ffffffffffffffffffffffffffffffffffffffff16634000aea07f000000000000000000000000000000000000000000000000000000000000000084866000604051602001610a72929190611657565b6040516020818303038152906040526040518463ffffffff167c0100000000000000000000000000000000000000000000000000000000028152600401610abb939291906116d5565b6020604051808303816000875af1158015610ada573d6000803e3d6000fd5b505050506040513d601f19601f82011682018060405250810190610afe9190611713565b506000610b208460003060008089815260200190815260200160002054610bf0565b9050600160008086815260200190815260200160002054610b4191906114aa565b60008086815260200190815260200160002081905550610b618482610c2d565b91505092915050565b6000428260020160049054906101000a900463ffffffff1663ffffffff1611159050919050565b60035442610b9f91906114aa565b8160020160046101000a81548163ffffffff021916908363ffffffff16021790555050565b6000808284610bd391906114aa565b905083811015610be657610be5611740565b5b8091505092915050565b600084848484604051602001610c09949392919061176f565b60405160208183030381529060405280519060200120600190049050949350505050565b60008282604051602001610c429291906117f6565b60405160208183030381529060405280519060200120905092915050565b828054610c6c9061134f565b90600052602060002090601f016020900481019282610c8e5760008555610cd5565b82601f10610ca757805160ff1916838001178555610cd5565b82800160010185558215610cd5579182015b82811115610cd4578251825591602001919060010190610cb9565b5b509050610ce29190610ce6565b5090565b5b80821115610cff576000816000905550600101610ce7565b5090565b6000604051905090565b600080fd5b600080fd5b6000819050919050565b610d2a81610d17565b8114610d3557600080fd5b50565b600081359050610d4781610d21565b92915050565b60008060408385031215610d6457610d63610d0d565b5b6000610d7285828601610d38565b9250506020610d8385828601610d38565b9150509250929050565b600060208284031215610da357610da2610d0d565b5b6000610db184828501610d38565b91505092915050565b600081519050919050565b600082825260208201905092915050565b60005b83811015610df4578082015181840152602081019050610dd9565b83811115610e03576000848401525b50505050565b6000601f19601f8301169050919050565b6000610e2582610dba565b610e2f8185610dc5565b9350610e3f818560208601610dd6565b610e4881610e09565b840191505092915050565b610e5c81610d17565b82525050565b600063ffffffff82169050919050565b610e7b81610e62565b82525050565b600061ffff82169050919050565b610e9881610e81565b82525050565b600060c0820190508181036000830152610eb88189610e1a565b9050610ec76020830188610e53565b610ed46040830187610e72565b610ee16060830186610e72565b610eee6080830185610e8f565b610efb60a0830184610e8f565b979650505050505050565b6000602082019050610f1b6000830184610e53565b92915050565b600073ffffffffffffffffffffffffffffffffffffffff82169050919050565b6000610f4c82610f21565b9050919050565b610f5c81610f41565b82525050565b6000602082019050610f776000830184610f53565b92915050565b610f8681610f41565b8114610f9157600080fd5b50565b600081359050610fa381610f7d565b92915050565b600060208284031215610fbf57610fbe610d0d565b5b6000610fcd84828501610f94565b91505092915050565b600080fd5b600080fd5b7f4e487b7100000000000000000000000000000000000000000000000000000000600052604160045260246000fd5b61101882610e09565b810181811067ffffffffffffffff8211171561103757611036610fe0565b5b80604052505050565b600061104a610d03565b9050611056828261100f565b919050565b600067ffffffffffffffff82111561107657611075610fe0565b5b61107f82610e09565b9050602081019050919050565b82818337600083830152505050565b60006110ae6110a98461105b565b611040565b9050828152602081018484840111156110ca576110c9610fdb565b5b6110d584828561108c565b509392505050565b600082601f8301126110f2576110f1610fd6565b5b813561110284826020860161109b565b91505092915050565b60006020828403121561112157611120610d0d565b5b600082013567ffffffffffffffff81111561113f5761113e610d12565b5b61114b848285016110dd565b91505092915050565b6000819050919050565b61116781611154565b811461117257600080fd5b50565b6000813590506111848161115e565b92915050565b600080604083850312156111a1576111a0610d0d565b5b60006111af85828601611175565b92505060206111c085828601610d38565b9150509250929050565b6111d381611154565b82525050565b60006020820190506111ee60008301846111ca565b92915050565b60008115159050919050565b611209816111f4565b811461121457600080fd5b50565b60008151905061122681611200565b92915050565b60008151905061123b81610d21565b92915050565b6000806000806000806000806000806101408b8d03121561126557611264610d0d565b5b60006112738d828e01611217565b9a505060206112848d828e01611217565b99505060406112958d828e0161122c565b98505060606112a68d828e0161122c565b97505060806112b78d828e0161122c565b96505060a06112c88d828e0161122c565b95505060c06112d98d828e0161122c565b94505060e06112ea8d828e0161122c565b9350506101006112fc8d828e0161122c565b92505061012061130e8d828e0161122c565b9150509295989b9194979a5092959850565b7f4e487b7100000000000000000000000000000000000000000000000000000000600052602260045260246000fd5b6000600282049050600182168061136757607f821691505b60208210810361137a57611379611320565b5b50919050565b7f4f6e6c7920565246436f6f7264696e61746f722063616e2066756c66696c6c00600082015250565b60006113b6601f83610dc5565b91506113c182611380565b602082019050919050565b600060208201905081810360008301526113e5816113a9565b9050919050565b7f4e487b7100000000000000000000000000000000000000000000000000000000600052603260045260246000fd5b7f4e487b7100000000000000000000000000000000000000000000000000000000600052601260045260246000fd5b600061145582610d17565b915061146083610d17565b9250826114705761146f61141b565b5b828206905092915050565b7f4e487b7100000000000000000000000000000000000000000000000000000000600052601160045260246000fd5b60006114b582610d17565b91506114c083610d17565b9250827fffffffffffffffffffffffffffffffffffffffffffffffffffffffffffffffff038211156114f5576114f461147b565b5b828201905092915050565b600061150b82610d17565b915061151683610d17565b9250826115265761152561141b565b5b828204905092915050565b600081905092915050565b7f6b69747479000000000000000000000000000000000000000000000000000000600082015250565b6000611572600583611531565b915061157d8261153c565b600582019050919050565b600061159382611565565b9150819050919050565b60006115a882610dba565b6115b28185611531565b93506115c2818560208601610dd6565b80840191505092915050565b60006115da828461159d565b915081905092915050565b60006115f082610d17565b91506115fb83610d17565b92508282101561160e5761160d61147b565b5b828203905092915050565b600060608201905061162e6000830186610e53565b81810360208301526116408185610e1a565b905061164f6040830184610e53565b949350505050565b600060408201905061166c60008301856111ca565b6116796020830184610e53565b9392505050565b600081519050919050565b600082825260208201905092915050565b60006116a782611680565b6116b1818561168b565b93506116c1818560208601610dd6565b6116ca81610e09565b840191505092915050565b60006060820190506116ea6000830186610f53565b6116f76020830185610e53565b8181036040830152611709818461169c565b9050949350505050565b60006020828403121561172957611728610d0d565b5b600061173784828501611217565b91505092915050565b7f4e487b7100000000000000000000000000000000000000000000000000000000600052600160045260246000fd5b600060808201905061178460008301876111ca565b6117916020830186610e53565b61179e6040830185610f53565b6117ab6060830184610e53565b95945050505050565b6000819050919050565b6117cf6117ca82611154565b6117b4565b82525050565b6000819050919050565b6117f06117eb82610d17565b6117d5565b82525050565b600061180282856117be565b60208201915061181282846117df565b602082019150819050939250505056fea2646970667358221220dcb5a596aac29ff7037e18d8c44bfe000a2c9c253a879d46124b48f212dba4af64736f6c634300080e0033",
  "immutableReferences": {
    "73": [
      {
        "length": 32,
        "start": 2562
      }
    ],
    "75": [
      {
        "length": 32,
        "start": 1259
      },
      {
        "length": 32,
        "start": 2622
      }
    ]
  },
  "source": "// SPDX-License-Identifier: MIT\npragma solidity >=0.4.22 <0.9.0;\n\nimport \"./ZombieFactory.sol\";\nimport \"./interface/IKitty.sol\";\n\ncontract ZombieFeeding is ZombieFactory {\n    // address ckAddress = 0x06012c8cf97BEaD5deAe237070F9587f8E7A266d;\n\n    KittyInterface kittyContract; // = KittyInterface(ckAddress);\n\n    modifier onlyOwnerOf(uint256 _zombieId) {\n        require(msg.sender == zombieToOwner[_zombieId]);\n        _;\n    }\n\n    function setKittyContractAddress(address _address) external {\n        kittyContract = KittyInterface(_address);\n    }\n\n    function _triggerCooldown(Zombie storage _zombie) internal {\n        _zombie.readyTime = uint32(block.timestamp + cooldownTime);\n    }\n\n    function _isReady(Zombie storage _zombie) internal view returns (bool) {\n        return (_zombie.readyTime <= block.timestamp);\n    }\n\n    function feedAndMultiply(\n        uint256 _zombieId,\n        uint256 _targetDna,\n        string memory _species\n    ) internal onlyOwnerOf(_zombieId) {\n        // require(msg.sender == zombieToOwner[_zombieId]);\n\n        Zombie storage myZombie = zombies[_zombieId];\n\n        require(_isReady(myZombie));\n\n        _targetDna = _targetDna % dnaModulus;\n        uint256 newDna = (myZombie.dna + _targetDna) / 2;\n\n        if (\n            keccak256(abi.encodePacked(_species)) ==\n            keccak256(abi.encodePacked(\"kitty\"))\n        ) {\n            newDna = newDna - (newDna % 100) + 99;\n        }\n\n        _createZombie(\"NoName\", newDna);\n        _triggerCooldown(myZombie);\n    }\n\n    function feedOnKitty(uint256 _zombieId, uint256 _kittyId) public {\n        uint256 kittyDna;\n        (, , , , , , , , , kittyDna) = kittyContract.getKitty(_kittyId);\n        feedAndMultiply(_zombieId, kittyDna, \"kitty\");\n    }\n}\n",
  "sourcePath": "D:\\Todo\\solidity-evm\\cryptozombies-truffle\\contracts\\ZombieFeeding.sol",
  "compiler": {
    "name": "solc",
    "version": "0.8.14+commit.80d49f37.Emscripten.clang"
  },
  "schemaVersion": "3.4.7",
  "updatedAt": "2022-09-12T16:38:36.844Z",
  "devdoc": {
    "kind": "dev",
    "methods": {},
    "version": 1
  },
  "userdoc": {
    "kind": "user",
    "methods": {},
    "version": 1
  }
}